{
  "_format": "hh-sol-artifact-1",
  "contractName": "NFTMarketplace",
  "sourceName": "contracts/MyNFT.sol",
  "abi": [
    {
      "inputs": [],
      "stateMutability": "nonpayable",
      "type": "constructor"
    },
    {
      "anonymous": false,
      "inputs": [
        {
          "indexed": true,
          "internalType": "address",
          "name": "owner",
          "type": "address"
        },
        {
          "indexed": true,
          "internalType": "address",
          "name": "approved",
          "type": "address"
        },
        {
          "indexed": true,
          "internalType": "uint256",
          "name": "tokenId",
          "type": "uint256"
        }
      ],
      "name": "Approval",
      "type": "event"
    },
    {
      "anonymous": false,
      "inputs": [
        {
          "indexed": true,
          "internalType": "address",
          "name": "owner",
          "type": "address"
        },
        {
          "indexed": true,
          "internalType": "address",
          "name": "operator",
          "type": "address"
        },
        {
          "indexed": false,
          "internalType": "bool",
          "name": "approved",
          "type": "bool"
        }
      ],
      "name": "ApprovalForAll",
      "type": "event"
    },
    {
      "anonymous": false,
      "inputs": [
        {
          "indexed": true,
          "internalType": "uint256",
          "name": "tokenId",
          "type": "uint256"
        },
        {
          "indexed": false,
          "internalType": "address",
          "name": "owner",
          "type": "address"
        },
        {
          "indexed": false,
          "internalType": "address",
          "name": "seller",
          "type": "address"
        },
        {
          "indexed": false,
          "internalType": "uint256",
          "name": "price",
          "type": "uint256"
        },
        {
          "indexed": false,
          "internalType": "bool",
          "name": "currentlyListed",
          "type": "bool"
        }
      ],
      "name": "TokenListedSuccess",
      "type": "event"
    },
    {
      "anonymous": false,
      "inputs": [
        {
          "indexed": true,
          "internalType": "address",
          "name": "from",
          "type": "address"
        },
        {
          "indexed": true,
          "internalType": "address",
          "name": "to",
          "type": "address"
        },
        {
          "indexed": true,
          "internalType": "uint256",
          "name": "tokenId",
          "type": "uint256"
        }
      ],
      "name": "Transfer",
      "type": "event"
    },
    {
      "inputs": [
        {
          "internalType": "address",
          "name": "to",
          "type": "address"
        },
        {
          "internalType": "uint256",
          "name": "tokenId",
          "type": "uint256"
        }
      ],
      "name": "approve",
      "outputs": [],
      "stateMutability": "nonpayable",
      "type": "function"
    },
    {
      "inputs": [
        {
          "internalType": "address",
          "name": "owner",
          "type": "address"
        }
      ],
      "name": "balanceOf",
      "outputs": [
        {
          "internalType": "uint256",
          "name": "",
          "type": "uint256"
        }
      ],
      "stateMutability": "view",
      "type": "function"
    },
    {
      "inputs": [
        {
          "internalType": "string",
          "name": "tokenURI",
          "type": "string"
        },
        {
          "internalType": "uint256",
          "name": "price",
          "type": "uint256"
        }
      ],
      "name": "createToken",
      "outputs": [
        {
          "internalType": "uint256",
          "name": "",
          "type": "uint256"
        }
      ],
      "stateMutability": "payable",
      "type": "function"
    },
    {
      "inputs": [
        {
          "internalType": "uint256",
          "name": "",
          "type": "uint256"
        }
      ],
      "name": "dateMinted",
      "outputs": [
        {
          "internalType": "uint256",
          "name": "",
          "type": "uint256"
        }
      ],
      "stateMutability": "view",
      "type": "function"
    },
    {
      "inputs": [
        {
          "internalType": "uint256",
          "name": "tokenId",
          "type": "uint256"
        }
      ],
      "name": "delistToken",
      "outputs": [],
      "stateMutability": "nonpayable",
      "type": "function"
    },
    {
      "inputs": [
        {
          "internalType": "uint256",
          "name": "tokenId",
          "type": "uint256"
        }
      ],
      "name": "executeSale",
      "outputs": [],
      "stateMutability": "payable",
      "type": "function"
    },
    {
      "inputs": [],
      "name": "getAllNFTs",
      "outputs": [
        {
          "components": [
            {
              "internalType": "uint256",
              "name": "tokenId",
              "type": "uint256"
            },
            {
              "internalType": "address payable",
              "name": "owner",
              "type": "address"
            },
            {
              "internalType": "address payable",
              "name": "seller",
              "type": "address"
            },
            {
              "internalType": "uint256",
              "name": "price",
              "type": "uint256"
            },
            {
              "internalType": "bool",
              "name": "currentlyListed",
              "type": "bool"
            }
          ],
          "internalType": "struct NFTMarketplace.ListedToken[]",
          "name": "",
          "type": "tuple[]"
        }
      ],
      "stateMutability": "view",
      "type": "function"
    },
    {
      "inputs": [
        {
          "internalType": "uint256",
          "name": "tokenId",
          "type": "uint256"
        }
      ],
      "name": "getApproved",
      "outputs": [
        {
          "internalType": "address",
          "name": "",
          "type": "address"
        }
      ],
      "stateMutability": "view",
      "type": "function"
    },
    {
      "inputs": [],
      "name": "getCurrentToken",
      "outputs": [
        {
          "internalType": "uint256",
          "name": "",
          "type": "uint256"
        }
      ],
      "stateMutability": "view",
      "type": "function"
    },
    {
      "inputs": [],
      "name": "getLatestIdToListedToken",
      "outputs": [
        {
          "components": [
            {
              "internalType": "uint256",
              "name": "tokenId",
              "type": "uint256"
            },
            {
              "internalType": "address payable",
              "name": "owner",
              "type": "address"
            },
            {
              "internalType": "address payable",
              "name": "seller",
              "type": "address"
            },
            {
              "internalType": "uint256",
              "name": "price",
              "type": "uint256"
            },
            {
              "internalType": "bool",
              "name": "currentlyListed",
              "type": "bool"
            }
          ],
          "internalType": "struct NFTMarketplace.ListedToken",
          "name": "",
          "type": "tuple"
        }
      ],
      "stateMutability": "view",
      "type": "function"
    },
    {
      "inputs": [],
      "name": "getListPrice",
      "outputs": [
        {
          "internalType": "uint256",
          "name": "",
          "type": "uint256"
        }
      ],
      "stateMutability": "view",
      "type": "function"
    },
    {
      "inputs": [
        {
          "internalType": "uint256",
          "name": "tokenId",
          "type": "uint256"
        }
      ],
      "name": "getListedTokenForId",
      "outputs": [
        {
          "components": [
            {
              "internalType": "uint256",
              "name": "tokenId",
              "type": "uint256"
            },
            {
              "internalType": "address payable",
              "name": "owner",
              "type": "address"
            },
            {
              "internalType": "address payable",
              "name": "seller",
              "type": "address"
            },
            {
              "internalType": "uint256",
              "name": "price",
              "type": "uint256"
            },
            {
              "internalType": "bool",
              "name": "currentlyListed",
              "type": "bool"
            }
          ],
          "internalType": "struct NFTMarketplace.ListedToken",
          "name": "",
          "type": "tuple"
        }
      ],
      "stateMutability": "view",
      "type": "function"
    },
    {
      "inputs": [],
      "name": "getMyNFTs",
      "outputs": [
        {
          "components": [
            {
              "internalType": "uint256",
              "name": "tokenId",
              "type": "uint256"
            },
            {
              "internalType": "address payable",
              "name": "owner",
              "type": "address"
            },
            {
              "internalType": "address payable",
              "name": "seller",
              "type": "address"
            },
            {
              "internalType": "uint256",
              "name": "price",
              "type": "uint256"
            },
            {
              "internalType": "bool",
              "name": "currentlyListed",
              "type": "bool"
            }
          ],
          "internalType": "struct NFTMarketplace.ListedToken[]",
          "name": "",
          "type": "tuple[]"
        }
      ],
      "stateMutability": "view",
      "type": "function"
    },
    {
      "inputs": [
        {
          "internalType": "address",
          "name": "owner",
          "type": "address"
        },
        {
          "internalType": "address",
          "name": "operator",
          "type": "address"
        }
      ],
      "name": "isApprovedForAll",
      "outputs": [
        {
          "internalType": "bool",
          "name": "",
          "type": "bool"
        }
      ],
      "stateMutability": "view",
      "type": "function"
    },
    {
      "inputs": [],
      "name": "name",
      "outputs": [
        {
          "internalType": "string",
          "name": "",
          "type": "string"
        }
      ],
      "stateMutability": "view",
      "type": "function"
    },
    {
      "inputs": [
        {
          "internalType": "uint256",
          "name": "tokenId",
          "type": "uint256"
        }
      ],
      "name": "ownerOf",
      "outputs": [
        {
          "internalType": "address",
          "name": "",
          "type": "address"
        }
      ],
      "stateMutability": "view",
      "type": "function"
    },
    {
      "inputs": [
        {
          "internalType": "address",
          "name": "from",
          "type": "address"
        },
        {
          "internalType": "address",
          "name": "to",
          "type": "address"
        },
        {
          "internalType": "uint256",
          "name": "tokenId",
          "type": "uint256"
        }
      ],
      "name": "safeTransferFrom",
      "outputs": [],
      "stateMutability": "nonpayable",
      "type": "function"
    },
    {
      "inputs": [
        {
          "internalType": "address",
          "name": "from",
          "type": "address"
        },
        {
          "internalType": "address",
          "name": "to",
          "type": "address"
        },
        {
          "internalType": "uint256",
          "name": "tokenId",
          "type": "uint256"
        },
        {
          "internalType": "bytes",
          "name": "data",
          "type": "bytes"
        }
      ],
      "name": "safeTransferFrom",
      "outputs": [],
      "stateMutability": "nonpayable",
      "type": "function"
    },
    {
      "inputs": [
        {
          "internalType": "address",
          "name": "operator",
          "type": "address"
        },
        {
          "internalType": "bool",
          "name": "approved",
          "type": "bool"
        }
      ],
      "name": "setApprovalForAll",
      "outputs": [],
      "stateMutability": "nonpayable",
      "type": "function"
    },
    {
      "inputs": [
        {
          "internalType": "bytes4",
          "name": "interfaceId",
          "type": "bytes4"
        }
      ],
      "name": "supportsInterface",
      "outputs": [
        {
          "internalType": "bool",
          "name": "",
          "type": "bool"
        }
      ],
      "stateMutability": "view",
      "type": "function"
    },
    {
      "inputs": [],
      "name": "symbol",
      "outputs": [
        {
          "internalType": "string",
          "name": "",
          "type": "string"
        }
      ],
      "stateMutability": "view",
      "type": "function"
    },
    {
      "inputs": [
        {
          "internalType": "uint256",
          "name": "tokenId",
          "type": "uint256"
        }
      ],
      "name": "tokenURI",
      "outputs": [
        {
          "internalType": "string",
          "name": "",
          "type": "string"
        }
      ],
      "stateMutability": "view",
      "type": "function"
    },
    {
      "inputs": [
        {
          "internalType": "address",
          "name": "from",
          "type": "address"
        },
        {
          "internalType": "address",
          "name": "to",
          "type": "address"
        },
        {
          "internalType": "uint256",
          "name": "tokenId",
          "type": "uint256"
        }
      ],
      "name": "transferFrom",
      "outputs": [],
      "stateMutability": "nonpayable",
      "type": "function"
    },
    {
      "inputs": [
        {
          "internalType": "uint256",
          "name": "_listPrice",
          "type": "uint256"
        }
      ],
      "name": "updateListPrice",
      "outputs": [],
      "stateMutability": "payable",
      "type": "function"
    },
    {
      "inputs": [
        {
          "internalType": "uint256",
          "name": "tokenId",
          "type": "uint256"
        },
        {
          "internalType": "uint256",
          "name": "price2",
          "type": "uint256"
        }
      ],
      "name": "updatePrice",
      "outputs": [],
      "stateMutability": "nonpayable",
      "type": "function"
    }
  ],
  "bytecode": "0x6080604052662386f26fc10000600a553480156200001c57600080fd5b506040518060400160405280601281526020017f4e4654436172644d61726b6574706c61636500000000000000000000000000008152506040518060400160405280600481526020017f43415244000000000000000000000000000000000000000000000000000000008152508160009080519060200190620000a192919062000104565b508060019080519060200190620000ba92919062000104565b50505033600960006101000a81548173ffffffffffffffffffffffffffffffffffffffff021916908373ffffffffffffffffffffffffffffffffffffffff16021790555062000219565b8280546200011290620001e3565b90600052602060002090601f01602090048101928262000136576000855562000182565b82601f106200015157805160ff191683800117855562000182565b8280016001018555821562000182579182015b828111156200018157825182559160200191906001019062000164565b5b50905062000191919062000195565b5090565b5b80821115620001b057600081600090555060010162000196565b5090565b7f4e487b7100000000000000000000000000000000000000000000000000000000600052602260045260246000fd5b60006002820490506001821680620001fc57607f821691505b60208210811415620002135762000212620001b4565b5b50919050565b6142e380620002296000396000f3fe6080604052600436106101665760003560e01c80638e264590116100d1578063c322579c1161008a578063e0391b0911610064578063e0391b0914610537578063e985e9c514610562578063ef2d17461461059f578063fa6e913a146105ca57610166565b8063c322579c146104b3578063c87b56dd146104cf578063d1a88ae51461050c57610166565b80638e264590146103b457806395d89b41146103f15780639b1225c41461041c578063a22cb46514610438578063b88d4fde14610461578063bed659bc1461048a57610166565b8063629cb2e411610123578063629cb2e41461028b5780636352211e146102b657806368f1945f146102f357806370a082311461031e57806372b3b6201461035b57806382367b2d1461038b57610166565b806301ffc9a71461016b57806306fdde03146101a8578063081812fc146101d3578063095ea7b31461021057806323b872dd1461023957806342842e0e14610262575b600080fd5b34801561017757600080fd5b50610192600480360381019061018d9190612c3b565b610607565b60405161019f9190612c83565b60405180910390f35b3480156101b457600080fd5b506101bd6106e9565b6040516101ca9190612d37565b60405180910390f35b3480156101df57600080fd5b506101fa60048036038101906101f59190612d8f565b61077b565b6040516102079190612dfd565b60405180910390f35b34801561021c57600080fd5b5061023760048036038101906102329190612e44565b6107c1565b005b34801561024557600080fd5b50610260600480360381019061025b9190612e84565b6108d9565b005b34801561026e57600080fd5b5061028960048036038101906102849190612e84565b610939565b005b34801561029757600080fd5b506102a0610959565b6040516102ad919061302d565b60405180910390f35b3480156102c257600080fd5b506102dd60048036038101906102d89190612d8f565b610d3a565b6040516102ea9190612dfd565b60405180910390f35b3480156102ff57600080fd5b50610308610dec565b604051610315919061305e565b60405180910390f35b34801561032a57600080fd5b5061034560048036038101906103409190613079565b610df6565b604051610352919061305e565b60405180910390f35b610375600480360381019061037091906131db565b610eae565b604051610382919061305e565b60405180910390f35b34801561039757600080fd5b506103b260048036038101906103ad9190613237565b610f08565b005b3480156103c057600080fd5b506103db60048036038101906103d69190612d8f565b610fcb565b6040516103e891906132df565b60405180910390f35b3480156103fd57600080fd5b506104066110d3565b6040516104139190612d37565b60405180910390f35b61043660048036038101906104319190612d8f565b611165565b005b34801561044457600080fd5b5061045f600480360381019061045a9190613326565b6113fc565b005b34801561046d57600080fd5b5061048860048036038101906104839190613407565b611412565b005b34801561049657600080fd5b506104b160048036038101906104ac9190612d8f565b611474565b005b6104cd60048036038101906104c89190612d8f565b611614565b005b3480156104db57600080fd5b506104f660048036038101906104f19190612d8f565b6116ae565b6040516105039190612d37565b60405180910390f35b34801561051857600080fd5b506105216117c1565b60405161052e91906132df565b60405180910390f35b34801561054357600080fd5b5061054c6118d6565b604051610559919061302d565b60405180910390f35b34801561056e57600080fd5b506105896004803603810190610584919061348a565b611ad9565b6040516105969190612c83565b60405180910390f35b3480156105ab57600080fd5b506105b4611b6d565b6040516105c1919061305e565b60405180910390f35b3480156105d657600080fd5b506105f160048036038101906105ec9190612d8f565b611b7e565b6040516105fe919061305e565b60405180910390f35b60007f80ac58cd000000000000000000000000000000000000000000000000000000007bffffffffffffffffffffffffffffffffffffffffffffffffffffffff1916827bffffffffffffffffffffffffffffffffffffffffffffffffffffffff191614806106d257507f5b5e139f000000000000000000000000000000000000000000000000000000007bffffffffffffffffffffffffffffffffffffffffffffffffffffffff1916827bffffffffffffffffffffffffffffffffffffffffffffffffffffffff1916145b806106e257506106e182611b96565b5b9050919050565b6060600080546106f8906134f9565b80601f0160208091040260200160405190810160405280929190818152602001828054610724906134f9565b80156107715780601f1061074657610100808354040283529160200191610771565b820191906000526020600020905b81548152906001019060200180831161075457829003601f168201915b5050505050905090565b600061078682611c00565b6004600083815260200190815260200160002060009054906101000a900473ffffffffffffffffffffffffffffffffffffffff169050919050565b60006107cc82610d3a565b90508073ffffffffffffffffffffffffffffffffffffffff168373ffffffffffffffffffffffffffffffffffffffff16141561083d576040517f08c379a00000000000000000000000000000000000000000000000000000000081526004016108349061359d565b60405180910390fd5b8073ffffffffffffffffffffffffffffffffffffffff1661085c611c4b565b73ffffffffffffffffffffffffffffffffffffffff16148061088b575061088a81610885611c4b565b611ad9565b5b6108ca576040517f08c379a00000000000000000000000000000000000000000000000000000000081526004016108c19061362f565b60405180910390fd5b6108d48383611c53565b505050565b6108ea6108e4611c4b565b82611d0c565b610929576040517f08c379a0000000000000000000000000000000000000000000000000000000008152600401610920906136c1565b60405180910390fd5b610934838383611da1565b505050565b61095483838360405180602001604052806000815250611412565b505050565b606060006109676007612008565b9050600080600080600090505b84811015610a8d573373ffffffffffffffffffffffffffffffffffffffff16600b60006001846109a49190613710565b815260200190815260200160002060010160009054906101000a900473ffffffffffffffffffffffffffffffffffffffff1673ffffffffffffffffffffffffffffffffffffffff161480610a6557503373ffffffffffffffffffffffffffffffffffffffff16600b6000600184610a1b9190613710565b815260200190815260200160002060020160009054906101000a900473ffffffffffffffffffffffffffffffffffffffff1673ffffffffffffffffffffffffffffffffffffffff16145b15610a7a57600184610a779190613710565b93505b8080610a8590613766565b915050610974565b5060008367ffffffffffffffff811115610aaa57610aa96130b0565b5b604051908082528060200260200182016040528015610ae357816020015b610ad0612acf565b815260200190600190039081610ac85790505b50905060005b85811015610d2e573373ffffffffffffffffffffffffffffffffffffffff16600b6000600184610b199190613710565b815260200190815260200160002060010160009054906101000a900473ffffffffffffffffffffffffffffffffffffffff1673ffffffffffffffffffffffffffffffffffffffff161480610bda57503373ffffffffffffffffffffffffffffffffffffffff16600b6000600184610b909190613710565b815260200190815260200160002060020160009054906101000a900473ffffffffffffffffffffffffffffffffffffffff1673ffffffffffffffffffffffffffffffffffffffff16145b15610d1b57600181610bec9190613710565b92506000600b60008581526020019081526020016000209050806040518060a0016040529081600082015481526020016001820160009054906101000a900473ffffffffffffffffffffffffffffffffffffffff1673ffffffffffffffffffffffffffffffffffffffff1673ffffffffffffffffffffffffffffffffffffffff1681526020016002820160009054906101000a900473ffffffffffffffffffffffffffffffffffffffff1673ffffffffffffffffffffffffffffffffffffffff1673ffffffffffffffffffffffffffffffffffffffff168152602001600382015481526020016004820160009054906101000a900460ff161515151581525050838681518110610cff57610cfe6137af565b5b6020026020010181905250600185610d179190613710565b9450505b8080610d2690613766565b915050610ae9565b50809550505050505090565b6000806002600084815260200190815260200160002060009054906101000a900473ffffffffffffffffffffffffffffffffffffffff169050600073ffffffffffffffffffffffffffffffffffffffff168173ffffffffffffffffffffffffffffffffffffffff161415610de3576040517f08c379a0000000000000000000000000000000000000000000000000000000008152600401610dda9061382a565b60405180910390fd5b80915050919050565b6000600a54905090565b60008073ffffffffffffffffffffffffffffffffffffffff168273ffffffffffffffffffffffffffffffffffffffff161415610e67576040517f08c379a0000000000000000000000000000000000000000000000000000000008152600401610e5e906138bc565b60405180910390fd5b600360008373ffffffffffffffffffffffffffffffffffffffff1673ffffffffffffffffffffffffffffffffffffffff168152602001908152602001600020549050919050565b6000610eba6007612016565b6000610ec66007612008565b9050610ed2338261202c565b42600c600083815260200190815260200160002081905550610ef4818561204a565b610efe81846120be565b8091505092915050565b3373ffffffffffffffffffffffffffffffffffffffff16600b600084815260200190815260200160002060020160009054906101000a900473ffffffffffffffffffffffffffffffffffffffff1673ffffffffffffffffffffffffffffffffffffffff1614610fac576040517f08c379a0000000000000000000000000000000000000000000000000000000008152600401610fa390613928565b60405180910390fd5b80600b6000848152602001908152602001600020600301819055505050565b610fd3612acf565b600b60008381526020019081526020016000206040518060a0016040529081600082015481526020016001820160009054906101000a900473ffffffffffffffffffffffffffffffffffffffff1673ffffffffffffffffffffffffffffffffffffffff1673ffffffffffffffffffffffffffffffffffffffff1681526020016002820160009054906101000a900473ffffffffffffffffffffffffffffffffffffffff1673ffffffffffffffffffffffffffffffffffffffff1673ffffffffffffffffffffffffffffffffffffffff168152602001600382015481526020016004820160009054906101000a900460ff1615151515815250509050919050565b6060600180546110e2906134f9565b80601f016020809104026020016040519081016040528092919081815260200182805461110e906134f9565b801561115b5780601f106111305761010080835404028352916020019161115b565b820191906000526020600020905b81548152906001019060200180831161113e57829003601f168201915b5050505050905090565b6000600b60008381526020019081526020016000206003015490506000600b600084815260200190815260200160002060020160009054906101000a900473ffffffffffffffffffffffffffffffffffffffff1690508134146111fd576040517f08c379a00000000000000000000000000000000000000000000000000000000081526004016111f4906139ba565b60405180910390fd5b3373ffffffffffffffffffffffffffffffffffffffff16600b600085815260200190815260200160002060020160009054906101000a900473ffffffffffffffffffffffffffffffffffffffff1673ffffffffffffffffffffffffffffffffffffffff1614156112a2576040517f08c379a000000000000000000000000000000000000000000000000000000000815260040161129990613a26565b60405180910390fd5b6001600b600085815260200190815260200160002060040160006101000a81548160ff02191690831515021790555033600b600085815260200190815260200160002060020160006101000a81548173ffffffffffffffffffffffffffffffffffffffff021916908373ffffffffffffffffffffffffffffffffffffffff1602179055506113306008612016565b61133b303385611da1565b61134530846107c1565b600960009054906101000a900473ffffffffffffffffffffffffffffffffffffffff1673ffffffffffffffffffffffffffffffffffffffff166108fc600a549081150290604051600060405180830381858888f193505050501580156113af573d6000803e3d6000fd5b508073ffffffffffffffffffffffffffffffffffffffff166108fc349081150290604051600060405180830381858888f193505050501580156113f6573d6000803e3d6000fd5b50505050565b61140e611407611c4b565b83836122c1565b5050565b61142361141d611c4b565b83611d0c565b611462576040517f08c379a0000000000000000000000000000000000000000000000000000000008152600401611459906136c1565b60405180910390fd5b61146e8484848461242e565b50505050565b3373ffffffffffffffffffffffffffffffffffffffff16600b600083815260200190815260200160002060020160009054906101000a900473ffffffffffffffffffffffffffffffffffffffff1673ffffffffffffffffffffffffffffffffffffffff1614611518576040517f08c379a000000000000000000000000000000000000000000000000000000000815260040161150f90613a92565b60405180910390fd5b60011515600b600083815260200190815260200160002060040160009054906101000a900460ff16151514611582576040517f08c379a000000000000000000000000000000000000000000000000000000000815260040161157990613afe565b60405180910390fd5b6000600b600083815260200190815260200160002060040160006101000a81548160ff02191690831515021790555033600b600083815260200190815260200160002060010160006101000a81548173ffffffffffffffffffffffffffffffffffffffff021916908373ffffffffffffffffffffffffffffffffffffffff160217905550611611303383611da1565b50565b3373ffffffffffffffffffffffffffffffffffffffff16600960009054906101000a900473ffffffffffffffffffffffffffffffffffffffff1673ffffffffffffffffffffffffffffffffffffffff16146116a4576040517f08c379a000000000000000000000000000000000000000000000000000000000815260040161169b90613b90565b60405180910390fd5b80600a8190555050565b60606116b982611c00565b60006006600084815260200190815260200160002080546116d9906134f9565b80601f0160208091040260200160405190810160405280929190818152602001828054611705906134f9565b80156117525780601f1061172757610100808354040283529160200191611752565b820191906000526020600020905b81548152906001019060200180831161173557829003601f168201915b50505050509050600061176361248a565b90506000815114156117795781925050506117bc565b6000825111156117ae578082604051602001611796929190613bec565b604051602081830303815290604052925050506117bc565b6117b7846124a1565b925050505b919050565b6117c9612acf565b60006117d56007612008565b9050600b60008281526020019081526020016000206040518060a0016040529081600082015481526020016001820160009054906101000a900473ffffffffffffffffffffffffffffffffffffffff1673ffffffffffffffffffffffffffffffffffffffff1673ffffffffffffffffffffffffffffffffffffffff1681526020016002820160009054906101000a900473ffffffffffffffffffffffffffffffffffffffff1673ffffffffffffffffffffffffffffffffffffffff1673ffffffffffffffffffffffffffffffffffffffff168152602001600382015481526020016004820160009054906101000a900460ff16151515158152505091505090565b606060006118e46007612008565b905060008167ffffffffffffffff811115611902576119016130b0565b5b60405190808252806020026020018201604052801561193b57816020015b611928612acf565b8152602001906001900390816119205790505b50905060008080600090505b84811015611ace5760018161195c9190613710565b915060011515600b600084815260200190815260200160002060040160009054906101000a900460ff1615151415611abb576000600b60008481526020019081526020016000209050806040518060a0016040529081600082015481526020016001820160009054906101000a900473ffffffffffffffffffffffffffffffffffffffff1673ffffffffffffffffffffffffffffffffffffffff1673ffffffffffffffffffffffffffffffffffffffff1681526020016002820160009054906101000a900473ffffffffffffffffffffffffffffffffffffffff1673ffffffffffffffffffffffffffffffffffffffff1673ffffffffffffffffffffffffffffffffffffffff168152602001600382015481526020016004820160009054906101000a900460ff161515151581525050858581518110611a9f57611a9e6137af565b5b6020026020010181905250600184611ab79190613710565b9350505b8080611ac690613766565b915050611947565b508294505050505090565b6000600560008473ffffffffffffffffffffffffffffffffffffffff1673ffffffffffffffffffffffffffffffffffffffff16815260200190815260200160002060008373ffffffffffffffffffffffffffffffffffffffff1673ffffffffffffffffffffffffffffffffffffffff16815260200190815260200160002060009054906101000a900460ff16905092915050565b6000611b796007612008565b905090565b600c6020528060005260406000206000915090505481565b60007f01ffc9a7000000000000000000000000000000000000000000000000000000007bffffffffffffffffffffffffffffffffffffffffffffffffffffffff1916827bffffffffffffffffffffffffffffffffffffffffffffffffffffffff1916149050919050565b611c0981612509565b611c48576040517f08c379a0000000000000000000000000000000000000000000000000000000008152600401611c3f9061382a565b60405180910390fd5b50565b600033905090565b816004600083815260200190815260200160002060006101000a81548173ffffffffffffffffffffffffffffffffffffffff021916908373ffffffffffffffffffffffffffffffffffffffff160217905550808273ffffffffffffffffffffffffffffffffffffffff16611cc683610d3a565b73ffffffffffffffffffffffffffffffffffffffff167f8c5be1e5ebec7d5bd14f71427d1e84f3dd0314c0f7b2291e5b200ac8c7c3b92560405160405180910390a45050565b600080611d1883610d3a565b90508073ffffffffffffffffffffffffffffffffffffffff168473ffffffffffffffffffffffffffffffffffffffff161480611d5a5750611d598185611ad9565b5b80611d9857508373ffffffffffffffffffffffffffffffffffffffff16611d808461077b565b73ffffffffffffffffffffffffffffffffffffffff16145b91505092915050565b8273ffffffffffffffffffffffffffffffffffffffff16611dc182610d3a565b73ffffffffffffffffffffffffffffffffffffffff1614611e17576040517f08c379a0000000000000000000000000000000000000000000000000000000008152600401611e0e90613c82565b60405180910390fd5b600073ffffffffffffffffffffffffffffffffffffffff168273ffffffffffffffffffffffffffffffffffffffff161415611e87576040517f08c379a0000000000000000000000000000000000000000000000000000000008152600401611e7e90613d14565b60405180910390fd5b611e92838383612575565b611e9d600082611c53565b6001600360008573ffffffffffffffffffffffffffffffffffffffff1673ffffffffffffffffffffffffffffffffffffffff1681526020019081526020016000206000828254611eed9190613d34565b925050819055506001600360008473ffffffffffffffffffffffffffffffffffffffff1673ffffffffffffffffffffffffffffffffffffffff1681526020019081526020016000206000828254611f449190613710565b92505081905550816002600083815260200190815260200160002060006101000a81548173ffffffffffffffffffffffffffffffffffffffff021916908373ffffffffffffffffffffffffffffffffffffffff160217905550808273ffffffffffffffffffffffffffffffffffffffff168473ffffffffffffffffffffffffffffffffffffffff167fddf252ad1be2c89b69c2b068fc378daa952ba7f163c4a11628f55a4df523b3ef60405160405180910390a461200383838361257a565b505050565b600081600001549050919050565b6001816000016000828254019250508190555050565b61204682826040518060200160405280600081525061257f565b5050565b61205382612509565b612092576040517f08c379a000000000000000000000000000000000000000000000000000000000815260040161208990613dda565b60405180910390fd5b806006600084815260200190815260200160002090805190602001906120b9929190612b2c565b505050565b600a543414612102576040517f08c379a00000000000000000000000000000000000000000000000000000000081526004016120f990613e6c565b60405180910390fd5b60008111612145576040517f08c379a000000000000000000000000000000000000000000000000000000000815260040161213c90613efe565b60405180910390fd5b6040518060a001604052808381526020013073ffffffffffffffffffffffffffffffffffffffff1681526020013373ffffffffffffffffffffffffffffffffffffffff16815260200182815260200160011515815250600b60008481526020019081526020016000206000820151816000015560208201518160010160006101000a81548173ffffffffffffffffffffffffffffffffffffffff021916908373ffffffffffffffffffffffffffffffffffffffff16021790555060408201518160020160006101000a81548173ffffffffffffffffffffffffffffffffffffffff021916908373ffffffffffffffffffffffffffffffffffffffff1602179055506060820151816003015560808201518160040160006101000a81548160ff02191690831515021790555090505061227e333084611da1565b817f9339409317fd01fabff48b703019016f49159bacc801ae872d2ca637d226e4c030338460016040516122b59493929190613f1e565b60405180910390a25050565b8173ffffffffffffffffffffffffffffffffffffffff168373ffffffffffffffffffffffffffffffffffffffff161415612330576040517f08c379a000000000000000000000000000000000000000000000000000000000815260040161232790613faf565b60405180910390fd5b80600560008573ffffffffffffffffffffffffffffffffffffffff1673ffffffffffffffffffffffffffffffffffffffff16815260200190815260200160002060008473ffffffffffffffffffffffffffffffffffffffff1673ffffffffffffffffffffffffffffffffffffffff16815260200190815260200160002060006101000a81548160ff0219169083151502179055508173ffffffffffffffffffffffffffffffffffffffff168373ffffffffffffffffffffffffffffffffffffffff167f17307eab39ab6107e8899845ad3d59bd9653f200f220920489ca2b5937696c31836040516124219190612c83565b60405180910390a3505050565b612439848484611da1565b612445848484846125da565b612484576040517f08c379a000000000000000000000000000000000000000000000000000000000815260040161247b90614041565b60405180910390fd5b50505050565b606060405180602001604052806000815250905090565b60606124ac82611c00565b60006124b661248a565b905060008151116124d65760405180602001604052806000815250612501565b806124e084612771565b6040516020016124f1929190613bec565b6040516020818303038152906040525b915050919050565b60008073ffffffffffffffffffffffffffffffffffffffff166002600084815260200190815260200160002060009054906101000a900473ffffffffffffffffffffffffffffffffffffffff1673ffffffffffffffffffffffffffffffffffffffff1614159050919050565b505050565b505050565b61258983836128d2565b61259660008484846125da565b6125d5576040517f08c379a00000000000000000000000000000000000000000000000000000000081526004016125cc90614041565b60405180910390fd5b505050565b60006125fb8473ffffffffffffffffffffffffffffffffffffffff16612aac565b15612764578373ffffffffffffffffffffffffffffffffffffffff1663150b7a02612624611c4b565b8786866040518563ffffffff1660e01b815260040161264694939291906140b6565b602060405180830381600087803b15801561266057600080fd5b505af192505050801561269157506040513d601f19601f8201168201806040525081019061268e9190614117565b60015b612714573d80600081146126c1576040519150601f19603f3d011682016040523d82523d6000602084013e6126c6565b606091505b5060008151141561270c576040517f08c379a000000000000000000000000000000000000000000000000000000000815260040161270390614041565b60405180910390fd5b805181602001fd5b63150b7a0260e01b7bffffffffffffffffffffffffffffffffffffffffffffffffffffffff1916817bffffffffffffffffffffffffffffffffffffffffffffffffffffffff191614915050612769565b600190505b949350505050565b606060008214156127b9576040518060400160405280600181526020017f300000000000000000000000000000000000000000000000000000000000000081525090506128cd565b600082905060005b600082146127eb5780806127d490613766565b915050600a826127e49190614173565b91506127c1565b60008167ffffffffffffffff811115612807576128066130b0565b5b6040519080825280601f01601f1916602001820160405280156128395781602001600182028036833780820191505090505b5090505b600085146128c6576001826128529190613d34565b9150600a8561286191906141a4565b603061286d9190613710565b60f81b818381518110612883576128826137af565b5b60200101907effffffffffffffffffffffffffffffffffffffffffffffffffffffffffffff1916908160001a905350600a856128bf9190614173565b945061283d565b8093505050505b919050565b600073ffffffffffffffffffffffffffffffffffffffff168273ffffffffffffffffffffffffffffffffffffffff161415612942576040517f08c379a000000000000000000000000000000000000000000000000000000000815260040161293990614221565b60405180910390fd5b61294b81612509565b1561298b576040517f08c379a00000000000000000000000000000000000000000000000000000000081526004016129829061428d565b60405180910390fd5b61299760008383612575565b6001600360008473ffffffffffffffffffffffffffffffffffffffff1673ffffffffffffffffffffffffffffffffffffffff16815260200190815260200160002060008282546129e79190613710565b92505081905550816002600083815260200190815260200160002060006101000a81548173ffffffffffffffffffffffffffffffffffffffff021916908373ffffffffffffffffffffffffffffffffffffffff160217905550808273ffffffffffffffffffffffffffffffffffffffff16600073ffffffffffffffffffffffffffffffffffffffff167fddf252ad1be2c89b69c2b068fc378daa952ba7f163c4a11628f55a4df523b3ef60405160405180910390a4612aa86000838361257a565b5050565b6000808273ffffffffffffffffffffffffffffffffffffffff163b119050919050565b6040518060a0016040528060008152602001600073ffffffffffffffffffffffffffffffffffffffff168152602001600073ffffffffffffffffffffffffffffffffffffffff168152602001600081526020016000151581525090565b828054612b38906134f9565b90600052602060002090601f016020900481019282612b5a5760008555612ba1565b82601f10612b7357805160ff1916838001178555612ba1565b82800160010185558215612ba1579182015b82811115612ba0578251825591602001919060010190612b85565b5b509050612bae9190612bb2565b5090565b5b80821115612bcb576000816000905550600101612bb3565b5090565b6000604051905090565b600080fd5b600080fd5b60007fffffffff0000000000000000000000000000000000000000000000000000000082169050919050565b612c1881612be3565b8114612c2357600080fd5b50565b600081359050612c3581612c0f565b92915050565b600060208284031215612c5157612c50612bd9565b5b6000612c5f84828501612c26565b91505092915050565b60008115159050919050565b612c7d81612c68565b82525050565b6000602082019050612c986000830184612c74565b92915050565b600081519050919050565b600082825260208201905092915050565b60005b83811015612cd8578082015181840152602081019050612cbd565b83811115612ce7576000848401525b50505050565b6000601f19601f8301169050919050565b6000612d0982612c9e565b612d138185612ca9565b9350612d23818560208601612cba565b612d2c81612ced565b840191505092915050565b60006020820190508181036000830152612d518184612cfe565b905092915050565b6000819050919050565b612d6c81612d59565b8114612d7757600080fd5b50565b600081359050612d8981612d63565b92915050565b600060208284031215612da557612da4612bd9565b5b6000612db384828501612d7a565b91505092915050565b600073ffffffffffffffffffffffffffffffffffffffff82169050919050565b6000612de782612dbc565b9050919050565b612df781612ddc565b82525050565b6000602082019050612e126000830184612dee565b92915050565b612e2181612ddc565b8114612e2c57600080fd5b50565b600081359050612e3e81612e18565b92915050565b60008060408385031215612e5b57612e5a612bd9565b5b6000612e6985828601612e2f565b9250506020612e7a85828601612d7a565b9150509250929050565b600080600060608486031215612e9d57612e9c612bd9565b5b6000612eab86828701612e2f565b9350506020612ebc86828701612e2f565b9250506040612ecd86828701612d7a565b9150509250925092565b600081519050919050565b600082825260208201905092915050565b6000819050602082019050919050565b612f0c81612d59565b82525050565b6000612f1d82612dbc565b9050919050565b612f2d81612f12565b82525050565b612f3c81612c68565b82525050565b60a082016000820151612f586000850182612f03565b506020820151612f6b6020850182612f24565b506040820151612f7e6040850182612f24565b506060820151612f916060850182612f03565b506080820151612fa46080850182612f33565b50505050565b6000612fb68383612f42565b60a08301905092915050565b6000602082019050919050565b6000612fda82612ed7565b612fe48185612ee2565b9350612fef83612ef3565b8060005b838110156130205781516130078882612faa565b975061301283612fc2565b925050600181019050612ff3565b5085935050505092915050565b600060208201905081810360008301526130478184612fcf565b905092915050565b61305881612d59565b82525050565b6000602082019050613073600083018461304f565b92915050565b60006020828403121561308f5761308e612bd9565b5b600061309d84828501612e2f565b91505092915050565b600080fd5b600080fd5b7f4e487b7100000000000000000000000000000000000000000000000000000000600052604160045260246000fd5b6130e882612ced565b810181811067ffffffffffffffff82111715613107576131066130b0565b5b80604052505050565b600061311a612bcf565b905061312682826130df565b919050565b600067ffffffffffffffff821115613146576131456130b0565b5b61314f82612ced565b9050602081019050919050565b82818337600083830152505050565b600061317e6131798461312b565b613110565b90508281526020810184848401111561319a576131996130ab565b5b6131a584828561315c565b509392505050565b600082601f8301126131c2576131c16130a6565b5b81356131d284826020860161316b565b91505092915050565b600080604083850312156131f2576131f1612bd9565b5b600083013567ffffffffffffffff8111156132105761320f612bde565b5b61321c858286016131ad565b925050602061322d85828601612d7a565b9150509250929050565b6000806040838503121561324e5761324d612bd9565b5b600061325c85828601612d7a565b925050602061326d85828601612d7a565b9150509250929050565b60a08201600082015161328d6000850182612f03565b5060208201516132a06020850182612f24565b5060408201516132b36040850182612f24565b5060608201516132c66060850182612f03565b5060808201516132d96080850182612f33565b50505050565b600060a0820190506132f46000830184613277565b92915050565b61330381612c68565b811461330e57600080fd5b50565b600081359050613320816132fa565b92915050565b6000806040838503121561333d5761333c612bd9565b5b600061334b85828601612e2f565b925050602061335c85828601613311565b9150509250929050565b600067ffffffffffffffff821115613381576133806130b0565b5b61338a82612ced565b9050602081019050919050565b60006133aa6133a584613366565b613110565b9050828152602081018484840111156133c6576133c56130ab565b5b6133d184828561315c565b509392505050565b600082601f8301126133ee576133ed6130a6565b5b81356133fe848260208601613397565b91505092915050565b6000806000806080858703121561342157613420612bd9565b5b600061342f87828801612e2f565b945050602061344087828801612e2f565b935050604061345187828801612d7a565b925050606085013567ffffffffffffffff81111561347257613471612bde565b5b61347e878288016133d9565b91505092959194509250565b600080604083850312156134a1576134a0612bd9565b5b60006134af85828601612e2f565b92505060206134c085828601612e2f565b9150509250929050565b7f4e487b7100000000000000000000000000000000000000000000000000000000600052602260045260246000fd5b6000600282049050600182168061351157607f821691505b60208210811415613525576135246134ca565b5b50919050565b7f4552433732313a20617070726f76616c20746f2063757272656e74206f776e6560008201527f7200000000000000000000000000000000000000000000000000000000000000602082015250565b6000613587602183612ca9565b91506135928261352b565b604082019050919050565b600060208201905081810360008301526135b68161357a565b9050919050565b7f4552433732313a20617070726f76652063616c6c6572206973206e6f7420746f60008201527f6b656e206f776e6572206e6f7220617070726f76656420666f7220616c6c0000602082015250565b6000613619603e83612ca9565b9150613624826135bd565b604082019050919050565b600060208201905081810360008301526136488161360c565b9050919050565b7f4552433732313a2063616c6c6572206973206e6f7420746f6b656e206f776e6560008201527f72206e6f7220617070726f766564000000000000000000000000000000000000602082015250565b60006136ab602e83612ca9565b91506136b68261364f565b604082019050919050565b600060208201905081810360008301526136da8161369e565b9050919050565b7f4e487b7100000000000000000000000000000000000000000000000000000000600052601160045260246000fd5b600061371b82612d59565b915061372683612d59565b9250827fffffffffffffffffffffffffffffffffffffffffffffffffffffffffffffffff0382111561375b5761375a6136e1565b5b828201905092915050565b600061377182612d59565b91507fffffffffffffffffffffffffffffffffffffffffffffffffffffffffffffffff8214156137a4576137a36136e1565b5b600182019050919050565b7f4e487b7100000000000000000000000000000000000000000000000000000000600052603260045260246000fd5b7f4552433732313a20696e76616c696420746f6b656e2049440000000000000000600082015250565b6000613814601883612ca9565b915061381f826137de565b602082019050919050565b6000602082019050818103600083015261384381613807565b9050919050565b7f4552433732313a2061646472657373207a65726f206973206e6f74206120766160008201527f6c6964206f776e65720000000000000000000000000000000000000000000000602082015250565b60006138a6602983612ca9565b91506138b18261384a565b604082019050919050565b600060208201905081810360008301526138d581613899565b9050919050565b7f796f7520646f206e6f74206f776e207468697320636172640000000000000000600082015250565b6000613912601883612ca9565b915061391d826138dc565b602082019050919050565b6000602082019050818103600083015261394181613905565b9050919050565b7f506c65617365207375626d6974207468652061736b696e67207072696365206960008201527f6e206f7264657220746f20636f6d706c65746520746865207075726368617365602082015250565b60006139a4604083612ca9565b91506139af82613948565b604082019050919050565b600060208201905081810360008301526139d381613997565b9050919050565b7f596f752063616e742062757920796f7572206f776e2063617264000000000000600082015250565b6000613a10601a83612ca9565b9150613a1b826139da565b602082019050919050565b60006020820190508181036000830152613a3f81613a03565b9050919050565b7f796f75206172656e7420746865206f776e657200000000000000000000000000600082015250565b6000613a7c601383612ca9565b9150613a8782613a46565b602082019050919050565b60006020820190508181036000830152613aab81613a6f565b9050919050565b7f436172642069736e74206c697374656400000000000000000000000000000000600082015250565b6000613ae8601083612ca9565b9150613af382613ab2565b602082019050919050565b60006020820190508181036000830152613b1781613adb565b9050919050565b7f4f6e6c79206f776e65722063616e20757064617465206c697374696e6720707260008201527f6963650000000000000000000000000000000000000000000000000000000000602082015250565b6000613b7a602383612ca9565b9150613b8582613b1e565b604082019050919050565b60006020820190508181036000830152613ba981613b6d565b9050919050565b600081905092915050565b6000613bc682612c9e565b613bd08185613bb0565b9350613be0818560208601612cba565b80840191505092915050565b6000613bf88285613bbb565b9150613c048284613bbb565b91508190509392505050565b7f4552433732313a207472616e736665722066726f6d20696e636f72726563742060008201527f6f776e6572000000000000000000000000000000000000000000000000000000602082015250565b6000613c6c602583612ca9565b9150613c7782613c10565b604082019050919050565b60006020820190508181036000830152613c9b81613c5f565b9050919050565b7f4552433732313a207472616e7366657220746f20746865207a65726f2061646460008201527f7265737300000000000000000000000000000000000000000000000000000000602082015250565b6000613cfe602483612ca9565b9150613d0982613ca2565b604082019050919050565b60006020820190508181036000830152613d2d81613cf1565b9050919050565b6000613d3f82612d59565b9150613d4a83612d59565b925082821015613d5d57613d5c6136e1565b5b828203905092915050565b7f45524337323155524953746f726167653a2055524920736574206f66206e6f6e60008201527f6578697374656e7420746f6b656e000000000000000000000000000000000000602082015250565b6000613dc4602e83612ca9565b9150613dcf82613d68565b604082019050919050565b60006020820190508181036000830152613df381613db7565b9050919050565b7f486f706566756c6c792073656e64696e672074686520636f727265637420707260008201527f6963650000000000000000000000000000000000000000000000000000000000602082015250565b6000613e56602383612ca9565b9150613e6182613dfa565b604082019050919050565b60006020820190508181036000830152613e8581613e49565b9050919050565b7f4d616b652073757265207468652070726963652069736e2774206e656761746960008201527f7665000000000000000000000000000000000000000000000000000000000000602082015250565b6000613ee8602283612ca9565b9150613ef382613e8c565b604082019050919050565b60006020820190508181036000830152613f1781613edb565b9050919050565b6000608082019050613f336000830187612dee565b613f406020830186612dee565b613f4d604083018561304f565b613f5a6060830184612c74565b95945050505050565b7f4552433732313a20617070726f766520746f2063616c6c657200000000000000600082015250565b6000613f99601983612ca9565b9150613fa482613f63565b602082019050919050565b60006020820190508181036000830152613fc881613f8c565b9050919050565b7f4552433732313a207472616e7366657220746f206e6f6e20455243373231526560008201527f63656976657220696d706c656d656e7465720000000000000000000000000000602082015250565b600061402b603283612ca9565b915061403682613fcf565b604082019050919050565b6000602082019050818103600083015261405a8161401e565b9050919050565b600081519050919050565b600082825260208201905092915050565b600061408882614061565b614092818561406c565b93506140a2818560208601612cba565b6140ab81612ced565b840191505092915050565b60006080820190506140cb6000830187612dee565b6140d86020830186612dee565b6140e5604083018561304f565b81810360608301526140f7818461407d565b905095945050505050565b60008151905061411181612c0f565b92915050565b60006020828403121561412d5761412c612bd9565b5b600061413b84828501614102565b91505092915050565b7f4e487b7100000000000000000000000000000000000000000000000000000000600052601260045260246000fd5b600061417e82612d59565b915061418983612d59565b92508261419957614198614144565b5b828204905092915050565b60006141af82612d59565b91506141ba83612d59565b9250826141ca576141c9614144565b5b828206905092915050565b7f4552433732313a206d696e7420746f20746865207a65726f2061646472657373600082015250565b600061420b602083612ca9565b9150614216826141d5565b602082019050919050565b6000602082019050818103600083015261423a816141fe565b9050919050565b7f4552433732313a20746f6b656e20616c7265616479206d696e74656400000000600082015250565b6000614277601c83612ca9565b915061428282614241565b602082019050919050565b600060208201905081810360008301526142a68161426a565b905091905056fea2646970667358221220688b257617ad1de2f0acbde0a9e3f66c1fca8a9628d17f8e9b5170e85aada55f64736f6c63430008090033",
  "linkReferences": {},
  "deployedLinkReferences": {}
}