{
  "_format": "hh-sol-artifact-1",
  "contractName": "NFTMarketplace",
  "sourceName": "contracts/MyNFT.sol",
  "abi": [
    {
      "inputs": [],
      "stateMutability": "nonpayable",
      "type": "constructor"
    },
    {
      "anonymous": false,
      "inputs": [
        {
          "indexed": true,
          "internalType": "address",
          "name": "owner",
          "type": "address"
        },
        {
          "indexed": true,
          "internalType": "address",
          "name": "approved",
          "type": "address"
        },
        {
          "indexed": true,
          "internalType": "uint256",
          "name": "tokenId",
          "type": "uint256"
        }
      ],
      "name": "Approval",
      "type": "event"
    },
    {
      "anonymous": false,
      "inputs": [
        {
          "indexed": true,
          "internalType": "address",
          "name": "owner",
          "type": "address"
        },
        {
          "indexed": true,
          "internalType": "address",
          "name": "operator",
          "type": "address"
        },
        {
          "indexed": false,
          "internalType": "bool",
          "name": "approved",
          "type": "bool"
        }
      ],
      "name": "ApprovalForAll",
      "type": "event"
    },
    {
      "anonymous": false,
      "inputs": [
        {
          "indexed": true,
          "internalType": "uint256",
          "name": "tokenId",
          "type": "uint256"
        },
        {
          "indexed": false,
          "internalType": "address",
          "name": "owner",
          "type": "address"
        },
        {
          "indexed": false,
          "internalType": "address",
          "name": "seller",
          "type": "address"
        },
        {
          "indexed": false,
          "internalType": "uint256",
          "name": "price",
          "type": "uint256"
        },
        {
          "indexed": false,
          "internalType": "bool",
          "name": "currentlyListed",
          "type": "bool"
        }
      ],
      "name": "TokenListedSuccess",
      "type": "event"
    },
    {
      "anonymous": false,
      "inputs": [
        {
          "indexed": true,
          "internalType": "address",
          "name": "from",
          "type": "address"
        },
        {
          "indexed": true,
          "internalType": "address",
          "name": "to",
          "type": "address"
        },
        {
          "indexed": true,
          "internalType": "uint256",
          "name": "tokenId",
          "type": "uint256"
        }
      ],
      "name": "Transfer",
      "type": "event"
    },
    {
      "inputs": [
        {
          "internalType": "address",
          "name": "to",
          "type": "address"
        },
        {
          "internalType": "uint256",
          "name": "tokenId",
          "type": "uint256"
        }
      ],
      "name": "approve",
      "outputs": [],
      "stateMutability": "nonpayable",
      "type": "function"
    },
    {
      "inputs": [
        {
          "internalType": "address",
          "name": "owner",
          "type": "address"
        }
      ],
      "name": "balanceOf",
      "outputs": [
        {
          "internalType": "uint256",
          "name": "",
          "type": "uint256"
        }
      ],
      "stateMutability": "view",
      "type": "function"
    },
    {
      "inputs": [
        {
          "internalType": "string",
          "name": "tokenURI",
          "type": "string"
        },
        {
          "internalType": "uint256",
          "name": "price",
          "type": "uint256"
        }
      ],
      "name": "createToken",
      "outputs": [
        {
          "internalType": "uint256",
          "name": "",
          "type": "uint256"
        }
      ],
      "stateMutability": "payable",
      "type": "function"
    },
    {
      "inputs": [
        {
          "internalType": "uint256",
          "name": "tokenId",
          "type": "uint256"
        }
      ],
      "name": "delistToken",
      "outputs": [],
      "stateMutability": "nonpayable",
      "type": "function"
    },
    {
      "inputs": [
        {
          "internalType": "uint256",
          "name": "tokenId",
          "type": "uint256"
        }
      ],
      "name": "executeSale",
      "outputs": [],
      "stateMutability": "payable",
      "type": "function"
    },
    {
      "inputs": [],
      "name": "getAllNFTs",
      "outputs": [
        {
          "components": [
            {
              "internalType": "uint256",
              "name": "tokenId",
              "type": "uint256"
            },
            {
              "internalType": "address payable",
              "name": "owner",
              "type": "address"
            },
            {
              "internalType": "address payable",
              "name": "seller",
              "type": "address"
            },
            {
              "internalType": "uint256",
              "name": "price",
              "type": "uint256"
            },
            {
              "internalType": "bool",
              "name": "currentlyListed",
              "type": "bool"
            }
          ],
          "internalType": "struct NFTMarketplace.ListedToken[]",
          "name": "",
          "type": "tuple[]"
        }
      ],
      "stateMutability": "view",
      "type": "function"
    },
    {
      "inputs": [
        {
          "internalType": "uint256",
          "name": "tokenId",
          "type": "uint256"
        }
      ],
      "name": "getApproved",
      "outputs": [
        {
          "internalType": "address",
          "name": "",
          "type": "address"
        }
      ],
      "stateMutability": "view",
      "type": "function"
    },
    {
      "inputs": [],
      "name": "getCurrentToken",
      "outputs": [
        {
          "internalType": "uint256",
          "name": "",
          "type": "uint256"
        }
      ],
      "stateMutability": "view",
      "type": "function"
    },
    {
      "inputs": [],
      "name": "getLatestIdToListedToken",
      "outputs": [
        {
          "components": [
            {
              "internalType": "uint256",
              "name": "tokenId",
              "type": "uint256"
            },
            {
              "internalType": "address payable",
              "name": "owner",
              "type": "address"
            },
            {
              "internalType": "address payable",
              "name": "seller",
              "type": "address"
            },
            {
              "internalType": "uint256",
              "name": "price",
              "type": "uint256"
            },
            {
              "internalType": "bool",
              "name": "currentlyListed",
              "type": "bool"
            }
          ],
          "internalType": "struct NFTMarketplace.ListedToken",
          "name": "",
          "type": "tuple"
        }
      ],
      "stateMutability": "view",
      "type": "function"
    },
    {
      "inputs": [],
      "name": "getListPrice",
      "outputs": [
        {
          "internalType": "uint256",
          "name": "",
          "type": "uint256"
        }
      ],
      "stateMutability": "view",
      "type": "function"
    },
    {
      "inputs": [
        {
          "internalType": "uint256",
          "name": "tokenId",
          "type": "uint256"
        }
      ],
      "name": "getListedTokenForId",
      "outputs": [
        {
          "components": [
            {
              "internalType": "uint256",
              "name": "tokenId",
              "type": "uint256"
            },
            {
              "internalType": "address payable",
              "name": "owner",
              "type": "address"
            },
            {
              "internalType": "address payable",
              "name": "seller",
              "type": "address"
            },
            {
              "internalType": "uint256",
              "name": "price",
              "type": "uint256"
            },
            {
              "internalType": "bool",
              "name": "currentlyListed",
              "type": "bool"
            }
          ],
          "internalType": "struct NFTMarketplace.ListedToken",
          "name": "",
          "type": "tuple"
        }
      ],
      "stateMutability": "view",
      "type": "function"
    },
    {
      "inputs": [],
      "name": "getMyNFTs",
      "outputs": [
        {
          "components": [
            {
              "internalType": "uint256",
              "name": "tokenId",
              "type": "uint256"
            },
            {
              "internalType": "address payable",
              "name": "owner",
              "type": "address"
            },
            {
              "internalType": "address payable",
              "name": "seller",
              "type": "address"
            },
            {
              "internalType": "uint256",
              "name": "price",
              "type": "uint256"
            },
            {
              "internalType": "bool",
              "name": "currentlyListed",
              "type": "bool"
            }
          ],
          "internalType": "struct NFTMarketplace.ListedToken[]",
          "name": "",
          "type": "tuple[]"
        }
      ],
      "stateMutability": "view",
      "type": "function"
    },
    {
      "inputs": [
        {
          "internalType": "address",
          "name": "owner",
          "type": "address"
        },
        {
          "internalType": "address",
          "name": "operator",
          "type": "address"
        }
      ],
      "name": "isApprovedForAll",
      "outputs": [
        {
          "internalType": "bool",
          "name": "",
          "type": "bool"
        }
      ],
      "stateMutability": "view",
      "type": "function"
    },
    {
      "inputs": [],
      "name": "name",
      "outputs": [
        {
          "internalType": "string",
          "name": "",
          "type": "string"
        }
      ],
      "stateMutability": "view",
      "type": "function"
    },
    {
      "inputs": [
        {
          "internalType": "uint256",
          "name": "tokenId",
          "type": "uint256"
        }
      ],
      "name": "ownerOf",
      "outputs": [
        {
          "internalType": "address",
          "name": "",
          "type": "address"
        }
      ],
      "stateMutability": "view",
      "type": "function"
    },
    {
      "inputs": [
        {
          "internalType": "address",
          "name": "from",
          "type": "address"
        },
        {
          "internalType": "address",
          "name": "to",
          "type": "address"
        },
        {
          "internalType": "uint256",
          "name": "tokenId",
          "type": "uint256"
        }
      ],
      "name": "safeTransferFrom",
      "outputs": [],
      "stateMutability": "nonpayable",
      "type": "function"
    },
    {
      "inputs": [
        {
          "internalType": "address",
          "name": "from",
          "type": "address"
        },
        {
          "internalType": "address",
          "name": "to",
          "type": "address"
        },
        {
          "internalType": "uint256",
          "name": "tokenId",
          "type": "uint256"
        },
        {
          "internalType": "bytes",
          "name": "data",
          "type": "bytes"
        }
      ],
      "name": "safeTransferFrom",
      "outputs": [],
      "stateMutability": "nonpayable",
      "type": "function"
    },
    {
      "inputs": [
        {
          "internalType": "address",
          "name": "operator",
          "type": "address"
        },
        {
          "internalType": "bool",
          "name": "approved",
          "type": "bool"
        }
      ],
      "name": "setApprovalForAll",
      "outputs": [],
      "stateMutability": "nonpayable",
      "type": "function"
    },
    {
      "inputs": [
        {
          "internalType": "bytes4",
          "name": "interfaceId",
          "type": "bytes4"
        }
      ],
      "name": "supportsInterface",
      "outputs": [
        {
          "internalType": "bool",
          "name": "",
          "type": "bool"
        }
      ],
      "stateMutability": "view",
      "type": "function"
    },
    {
      "inputs": [],
      "name": "symbol",
      "outputs": [
        {
          "internalType": "string",
          "name": "",
          "type": "string"
        }
      ],
      "stateMutability": "view",
      "type": "function"
    },
    {
      "inputs": [
        {
          "internalType": "uint256",
          "name": "tokenId",
          "type": "uint256"
        }
      ],
      "name": "tokenURI",
      "outputs": [
        {
          "internalType": "string",
          "name": "",
          "type": "string"
        }
      ],
      "stateMutability": "view",
      "type": "function"
    },
    {
      "inputs": [
        {
          "internalType": "address",
          "name": "from",
          "type": "address"
        },
        {
          "internalType": "address",
          "name": "to",
          "type": "address"
        },
        {
          "internalType": "uint256",
          "name": "tokenId",
          "type": "uint256"
        }
      ],
      "name": "transferFrom",
      "outputs": [],
      "stateMutability": "nonpayable",
      "type": "function"
    },
    {
      "inputs": [
        {
          "internalType": "uint256",
          "name": "_listPrice",
          "type": "uint256"
        }
      ],
      "name": "updateListPrice",
      "outputs": [],
      "stateMutability": "payable",
      "type": "function"
    }
  ],
  "bytecode": "0x6080604052662386f26fc10000600a553480156200001c57600080fd5b506040518060400160405280601281526020017f4e4654436172644d61726b6574706c61636500000000000000000000000000008152506040518060400160405280600481526020017f43415244000000000000000000000000000000000000000000000000000000008152508160009080519060200190620000a192919062000104565b508060019080519060200190620000ba92919062000104565b50505033600960006101000a81548173ffffffffffffffffffffffffffffffffffffffff021916908373ffffffffffffffffffffffffffffffffffffffff16021790555062000219565b8280546200011290620001e3565b90600052602060002090601f01602090048101928262000136576000855562000182565b82601f106200015157805160ff191683800117855562000182565b8280016001018555821562000182579182015b828111156200018157825182559160200191906001019062000164565b5b50905062000191919062000195565b5090565b5b80821115620001b057600081600090555060010162000196565b5090565b7f4e487b7100000000000000000000000000000000000000000000000000000000600052602260045260246000fd5b60006002820490506001821680620001fc57607f821691505b60208210811415620002135762000212620001b4565b5b50919050565b6140b880620002296000396000f3fe6080604052600436106101405760003560e01c80638e264590116100b6578063c322579c1161006f578063c322579c14610464578063c87b56dd14610480578063d1a88ae5146104bd578063e0391b09146104e8578063e985e9c514610513578063ef2d17461461055057610140565b80638e2645901461036557806395d89b41146103a25780639b1225c4146103cd578063a22cb465146103e9578063b88d4fde14610412578063bed659bc1461043b57610140565b806342842e0e1161010857806342842e0e1461023c578063629cb2e4146102655780636352211e1461029057806368f1945f146102cd57806370a08231146102f857806372b3b6201461033557610140565b806301ffc9a71461014557806306fdde0314610182578063081812fc146101ad578063095ea7b3146101ea57806323b872dd14610213575b600080fd5b34801561015157600080fd5b5061016c60048036038101906101679190612abc565b61057b565b6040516101799190612b04565b60405180910390f35b34801561018e57600080fd5b5061019761065d565b6040516101a49190612bb8565b60405180910390f35b3480156101b957600080fd5b506101d460048036038101906101cf9190612c10565b6106ef565b6040516101e19190612c7e565b60405180910390f35b3480156101f657600080fd5b50610211600480360381019061020c9190612cc5565b610735565b005b34801561021f57600080fd5b5061023a60048036038101906102359190612d05565b61084d565b005b34801561024857600080fd5b50610263600480360381019061025e9190612d05565b6108ad565b005b34801561027157600080fd5b5061027a6108cd565b6040516102879190612eae565b60405180910390f35b34801561029c57600080fd5b506102b760048036038101906102b29190612c10565b610cae565b6040516102c49190612c7e565b60405180910390f35b3480156102d957600080fd5b506102e2610d60565b6040516102ef9190612edf565b60405180910390f35b34801561030457600080fd5b5061031f600480360381019061031a9190612efa565b610d6a565b60405161032c9190612edf565b60405180910390f35b61034f600480360381019061034a919061305c565b610e22565b60405161035c9190612edf565b60405180910390f35b34801561037157600080fd5b5061038c60048036038101906103879190612c10565b610e64565b6040516103999190613120565b60405180910390f35b3480156103ae57600080fd5b506103b7610f6c565b6040516103c49190612bb8565b60405180910390f35b6103e760048036038101906103e29190612c10565b610ffe565b005b3480156103f557600080fd5b50610410600480360381019061040b9190613167565b611295565b005b34801561041e57600080fd5b5061043960048036038101906104349190613248565b6112ab565b005b34801561044757600080fd5b50610462600480360381019061045d9190612c10565b61130d565b005b61047e60048036038101906104799190612c10565b6114ad565b005b34801561048c57600080fd5b506104a760048036038101906104a29190612c10565b611547565b6040516104b49190612bb8565b60405180910390f35b3480156104c957600080fd5b506104d261165a565b6040516104df9190613120565b60405180910390f35b3480156104f457600080fd5b506104fd61176f565b60405161050a9190612eae565b60405180910390f35b34801561051f57600080fd5b5061053a600480360381019061053591906132cb565b611972565b6040516105479190612b04565b60405180910390f35b34801561055c57600080fd5b50610565611a06565b6040516105729190612edf565b60405180910390f35b60007f80ac58cd000000000000000000000000000000000000000000000000000000007bffffffffffffffffffffffffffffffffffffffffffffffffffffffff1916827bffffffffffffffffffffffffffffffffffffffffffffffffffffffff1916148061064657507f5b5e139f000000000000000000000000000000000000000000000000000000007bffffffffffffffffffffffffffffffffffffffffffffffffffffffff1916827bffffffffffffffffffffffffffffffffffffffffffffffffffffffff1916145b80610656575061065582611a17565b5b9050919050565b60606000805461066c9061333a565b80601f01602080910402602001604051908101604052809291908181526020018280546106989061333a565b80156106e55780601f106106ba576101008083540402835291602001916106e5565b820191906000526020600020905b8154815290600101906020018083116106c857829003601f168201915b5050505050905090565b60006106fa82611a81565b6004600083815260200190815260200160002060009054906101000a900473ffffffffffffffffffffffffffffffffffffffff169050919050565b600061074082610cae565b90508073ffffffffffffffffffffffffffffffffffffffff168373ffffffffffffffffffffffffffffffffffffffff1614156107b1576040517f08c379a00000000000000000000000000000000000000000000000000000000081526004016107a8906133de565b60405180910390fd5b8073ffffffffffffffffffffffffffffffffffffffff166107d0611acc565b73ffffffffffffffffffffffffffffffffffffffff1614806107ff57506107fe816107f9611acc565b611972565b5b61083e576040517f08c379a000000000000000000000000000000000000000000000000000000000815260040161083590613470565b60405180910390fd5b6108488383611ad4565b505050565b61085e610858611acc565b82611b8d565b61089d576040517f08c379a000000000000000000000000000000000000000000000000000000000815260040161089490613502565b60405180910390fd5b6108a8838383611c22565b505050565b6108c8838383604051806020016040528060008152506112ab565b505050565b606060006108db6007611e89565b9050600080600080600090505b84811015610a01573373ffffffffffffffffffffffffffffffffffffffff16600b60006001846109189190613551565b815260200190815260200160002060010160009054906101000a900473ffffffffffffffffffffffffffffffffffffffff1673ffffffffffffffffffffffffffffffffffffffff1614806109d957503373ffffffffffffffffffffffffffffffffffffffff16600b600060018461098f9190613551565b815260200190815260200160002060020160009054906101000a900473ffffffffffffffffffffffffffffffffffffffff1673ffffffffffffffffffffffffffffffffffffffff16145b156109ee576001846109eb9190613551565b93505b80806109f9906135a7565b9150506108e8565b5060008367ffffffffffffffff811115610a1e57610a1d612f31565b5b604051908082528060200260200182016040528015610a5757816020015b610a44612950565b815260200190600190039081610a3c5790505b50905060005b85811015610ca2573373ffffffffffffffffffffffffffffffffffffffff16600b6000600184610a8d9190613551565b815260200190815260200160002060010160009054906101000a900473ffffffffffffffffffffffffffffffffffffffff1673ffffffffffffffffffffffffffffffffffffffff161480610b4e57503373ffffffffffffffffffffffffffffffffffffffff16600b6000600184610b049190613551565b815260200190815260200160002060020160009054906101000a900473ffffffffffffffffffffffffffffffffffffffff1673ffffffffffffffffffffffffffffffffffffffff16145b15610c8f57600181610b609190613551565b92506000600b60008581526020019081526020016000209050806040518060a0016040529081600082015481526020016001820160009054906101000a900473ffffffffffffffffffffffffffffffffffffffff1673ffffffffffffffffffffffffffffffffffffffff1673ffffffffffffffffffffffffffffffffffffffff1681526020016002820160009054906101000a900473ffffffffffffffffffffffffffffffffffffffff1673ffffffffffffffffffffffffffffffffffffffff1673ffffffffffffffffffffffffffffffffffffffff168152602001600382015481526020016004820160009054906101000a900460ff161515151581525050838681518110610c7357610c726135f0565b5b6020026020010181905250600185610c8b9190613551565b9450505b8080610c9a906135a7565b915050610a5d565b50809550505050505090565b6000806002600084815260200190815260200160002060009054906101000a900473ffffffffffffffffffffffffffffffffffffffff169050600073ffffffffffffffffffffffffffffffffffffffff168173ffffffffffffffffffffffffffffffffffffffff161415610d57576040517f08c379a0000000000000000000000000000000000000000000000000000000008152600401610d4e9061366b565b60405180910390fd5b80915050919050565b6000600a54905090565b60008073ffffffffffffffffffffffffffffffffffffffff168273ffffffffffffffffffffffffffffffffffffffff161415610ddb576040517f08c379a0000000000000000000000000000000000000000000000000000000008152600401610dd2906136fd565b60405180910390fd5b600360008373ffffffffffffffffffffffffffffffffffffffff1673ffffffffffffffffffffffffffffffffffffffff168152602001908152602001600020549050919050565b6000610e2e6007611e97565b6000610e3a6007611e89565b9050610e463382611ead565b610e508185611ecb565b610e5a8184611f3f565b8091505092915050565b610e6c612950565b600b60008381526020019081526020016000206040518060a0016040529081600082015481526020016001820160009054906101000a900473ffffffffffffffffffffffffffffffffffffffff1673ffffffffffffffffffffffffffffffffffffffff1673ffffffffffffffffffffffffffffffffffffffff1681526020016002820160009054906101000a900473ffffffffffffffffffffffffffffffffffffffff1673ffffffffffffffffffffffffffffffffffffffff1673ffffffffffffffffffffffffffffffffffffffff168152602001600382015481526020016004820160009054906101000a900460ff1615151515815250509050919050565b606060018054610f7b9061333a565b80601f0160208091040260200160405190810160405280929190818152602001828054610fa79061333a565b8015610ff45780601f10610fc957610100808354040283529160200191610ff4565b820191906000526020600020905b815481529060010190602001808311610fd757829003601f168201915b5050505050905090565b6000600b60008381526020019081526020016000206003015490506000600b600084815260200190815260200160002060020160009054906101000a900473ffffffffffffffffffffffffffffffffffffffff169050813414611096576040517f08c379a000000000000000000000000000000000000000000000000000000000815260040161108d9061378f565b60405180910390fd5b3373ffffffffffffffffffffffffffffffffffffffff16600b600085815260200190815260200160002060020160009054906101000a900473ffffffffffffffffffffffffffffffffffffffff1673ffffffffffffffffffffffffffffffffffffffff16141561113b576040517f08c379a0000000000000000000000000000000000000000000000000000000008152600401611132906137fb565b60405180910390fd5b6001600b600085815260200190815260200160002060040160006101000a81548160ff02191690831515021790555033600b600085815260200190815260200160002060020160006101000a81548173ffffffffffffffffffffffffffffffffffffffff021916908373ffffffffffffffffffffffffffffffffffffffff1602179055506111c96008611e97565b6111d4303385611c22565b6111de3084610735565b600960009054906101000a900473ffffffffffffffffffffffffffffffffffffffff1673ffffffffffffffffffffffffffffffffffffffff166108fc600a549081150290604051600060405180830381858888f19350505050158015611248573d6000803e3d6000fd5b508073ffffffffffffffffffffffffffffffffffffffff166108fc349081150290604051600060405180830381858888f1935050505015801561128f573d6000803e3d6000fd5b50505050565b6112a76112a0611acc565b8383612142565b5050565b6112bc6112b6611acc565b83611b8d565b6112fb576040517f08c379a00000000000000000000000000000000000000000000000000000000081526004016112f290613502565b60405180910390fd5b611307848484846122af565b50505050565b3373ffffffffffffffffffffffffffffffffffffffff16600b600083815260200190815260200160002060020160009054906101000a900473ffffffffffffffffffffffffffffffffffffffff1673ffffffffffffffffffffffffffffffffffffffff16146113b1576040517f08c379a00000000000000000000000000000000000000000000000000000000081526004016113a890613867565b60405180910390fd5b60011515600b600083815260200190815260200160002060040160009054906101000a900460ff1615151461141b576040517f08c379a0000000000000000000000000000000000000000000000000000000008152600401611412906138d3565b60405180910390fd5b6000600b600083815260200190815260200160002060040160006101000a81548160ff02191690831515021790555033600b600083815260200190815260200160002060010160006101000a81548173ffffffffffffffffffffffffffffffffffffffff021916908373ffffffffffffffffffffffffffffffffffffffff1602179055506114aa303383611c22565b50565b3373ffffffffffffffffffffffffffffffffffffffff16600960009054906101000a900473ffffffffffffffffffffffffffffffffffffffff1673ffffffffffffffffffffffffffffffffffffffff161461153d576040517f08c379a000000000000000000000000000000000000000000000000000000000815260040161153490613965565b60405180910390fd5b80600a8190555050565b606061155282611a81565b60006006600084815260200190815260200160002080546115729061333a565b80601f016020809104026020016040519081016040528092919081815260200182805461159e9061333a565b80156115eb5780601f106115c0576101008083540402835291602001916115eb565b820191906000526020600020905b8154815290600101906020018083116115ce57829003601f168201915b5050505050905060006115fc61230b565b9050600081511415611612578192505050611655565b60008251111561164757808260405160200161162f9291906139c1565b60405160208183030381529060405292505050611655565b61165084612322565b925050505b919050565b611662612950565b600061166e6007611e89565b9050600b60008281526020019081526020016000206040518060a0016040529081600082015481526020016001820160009054906101000a900473ffffffffffffffffffffffffffffffffffffffff1673ffffffffffffffffffffffffffffffffffffffff1673ffffffffffffffffffffffffffffffffffffffff1681526020016002820160009054906101000a900473ffffffffffffffffffffffffffffffffffffffff1673ffffffffffffffffffffffffffffffffffffffff1673ffffffffffffffffffffffffffffffffffffffff168152602001600382015481526020016004820160009054906101000a900460ff16151515158152505091505090565b6060600061177d6007611e89565b905060008167ffffffffffffffff81111561179b5761179a612f31565b5b6040519080825280602002602001820160405280156117d457816020015b6117c1612950565b8152602001906001900390816117b95790505b50905060008080600090505b84811015611967576001816117f59190613551565b915060011515600b600084815260200190815260200160002060040160009054906101000a900460ff1615151415611954576000600b60008481526020019081526020016000209050806040518060a0016040529081600082015481526020016001820160009054906101000a900473ffffffffffffffffffffffffffffffffffffffff1673ffffffffffffffffffffffffffffffffffffffff1673ffffffffffffffffffffffffffffffffffffffff1681526020016002820160009054906101000a900473ffffffffffffffffffffffffffffffffffffffff1673ffffffffffffffffffffffffffffffffffffffff1673ffffffffffffffffffffffffffffffffffffffff168152602001600382015481526020016004820160009054906101000a900460ff161515151581525050858581518110611938576119376135f0565b5b60200260200101819052506001846119509190613551565b9350505b808061195f906135a7565b9150506117e0565b508294505050505090565b6000600560008473ffffffffffffffffffffffffffffffffffffffff1673ffffffffffffffffffffffffffffffffffffffff16815260200190815260200160002060008373ffffffffffffffffffffffffffffffffffffffff1673ffffffffffffffffffffffffffffffffffffffff16815260200190815260200160002060009054906101000a900460ff16905092915050565b6000611a126007611e89565b905090565b60007f01ffc9a7000000000000000000000000000000000000000000000000000000007bffffffffffffffffffffffffffffffffffffffffffffffffffffffff1916827bffffffffffffffffffffffffffffffffffffffffffffffffffffffff1916149050919050565b611a8a8161238a565b611ac9576040517f08c379a0000000000000000000000000000000000000000000000000000000008152600401611ac09061366b565b60405180910390fd5b50565b600033905090565b816004600083815260200190815260200160002060006101000a81548173ffffffffffffffffffffffffffffffffffffffff021916908373ffffffffffffffffffffffffffffffffffffffff160217905550808273ffffffffffffffffffffffffffffffffffffffff16611b4783610cae565b73ffffffffffffffffffffffffffffffffffffffff167f8c5be1e5ebec7d5bd14f71427d1e84f3dd0314c0f7b2291e5b200ac8c7c3b92560405160405180910390a45050565b600080611b9983610cae565b90508073ffffffffffffffffffffffffffffffffffffffff168473ffffffffffffffffffffffffffffffffffffffff161480611bdb5750611bda8185611972565b5b80611c1957508373ffffffffffffffffffffffffffffffffffffffff16611c01846106ef565b73ffffffffffffffffffffffffffffffffffffffff16145b91505092915050565b8273ffffffffffffffffffffffffffffffffffffffff16611c4282610cae565b73ffffffffffffffffffffffffffffffffffffffff1614611c98576040517f08c379a0000000000000000000000000000000000000000000000000000000008152600401611c8f90613a57565b60405180910390fd5b600073ffffffffffffffffffffffffffffffffffffffff168273ffffffffffffffffffffffffffffffffffffffff161415611d08576040517f08c379a0000000000000000000000000000000000000000000000000000000008152600401611cff90613ae9565b60405180910390fd5b611d138383836123f6565b611d1e600082611ad4565b6001600360008573ffffffffffffffffffffffffffffffffffffffff1673ffffffffffffffffffffffffffffffffffffffff1681526020019081526020016000206000828254611d6e9190613b09565b925050819055506001600360008473ffffffffffffffffffffffffffffffffffffffff1673ffffffffffffffffffffffffffffffffffffffff1681526020019081526020016000206000828254611dc59190613551565b92505081905550816002600083815260200190815260200160002060006101000a81548173ffffffffffffffffffffffffffffffffffffffff021916908373ffffffffffffffffffffffffffffffffffffffff160217905550808273ffffffffffffffffffffffffffffffffffffffff168473ffffffffffffffffffffffffffffffffffffffff167fddf252ad1be2c89b69c2b068fc378daa952ba7f163c4a11628f55a4df523b3ef60405160405180910390a4611e848383836123fb565b505050565b600081600001549050919050565b6001816000016000828254019250508190555050565b611ec7828260405180602001604052806000815250612400565b5050565b611ed48261238a565b611f13576040517f08c379a0000000000000000000000000000000000000000000000000000000008152600401611f0a90613baf565b60405180910390fd5b80600660008481526020019081526020016000209080519060200190611f3a9291906129ad565b505050565b600a543414611f83576040517f08c379a0000000000000000000000000000000000000000000000000000000008152600401611f7a90613c41565b60405180910390fd5b60008111611fc6576040517f08c379a0000000000000000000000000000000000000000000000000000000008152600401611fbd90613cd3565b60405180910390fd5b6040518060a001604052808381526020013073ffffffffffffffffffffffffffffffffffffffff1681526020013373ffffffffffffffffffffffffffffffffffffffff16815260200182815260200160011515815250600b60008481526020019081526020016000206000820151816000015560208201518160010160006101000a81548173ffffffffffffffffffffffffffffffffffffffff021916908373ffffffffffffffffffffffffffffffffffffffff16021790555060408201518160020160006101000a81548173ffffffffffffffffffffffffffffffffffffffff021916908373ffffffffffffffffffffffffffffffffffffffff1602179055506060820151816003015560808201518160040160006101000a81548160ff0219169083151502179055509050506120ff333084611c22565b817f9339409317fd01fabff48b703019016f49159bacc801ae872d2ca637d226e4c030338460016040516121369493929190613cf3565b60405180910390a25050565b8173ffffffffffffffffffffffffffffffffffffffff168373ffffffffffffffffffffffffffffffffffffffff1614156121b1576040517f08c379a00000000000000000000000000000000000000000000000000000000081526004016121a890613d84565b60405180910390fd5b80600560008573ffffffffffffffffffffffffffffffffffffffff1673ffffffffffffffffffffffffffffffffffffffff16815260200190815260200160002060008473ffffffffffffffffffffffffffffffffffffffff1673ffffffffffffffffffffffffffffffffffffffff16815260200190815260200160002060006101000a81548160ff0219169083151502179055508173ffffffffffffffffffffffffffffffffffffffff168373ffffffffffffffffffffffffffffffffffffffff167f17307eab39ab6107e8899845ad3d59bd9653f200f220920489ca2b5937696c31836040516122a29190612b04565b60405180910390a3505050565b6122ba848484611c22565b6122c68484848461245b565b612305576040517f08c379a00000000000000000000000000000000000000000000000000000000081526004016122fc90613e16565b60405180910390fd5b50505050565b606060405180602001604052806000815250905090565b606061232d82611a81565b600061233761230b565b905060008151116123575760405180602001604052806000815250612382565b80612361846125f2565b6040516020016123729291906139c1565b6040516020818303038152906040525b915050919050565b60008073ffffffffffffffffffffffffffffffffffffffff166002600084815260200190815260200160002060009054906101000a900473ffffffffffffffffffffffffffffffffffffffff1673ffffffffffffffffffffffffffffffffffffffff1614159050919050565b505050565b505050565b61240a8383612753565b612417600084848461245b565b612456576040517f08c379a000000000000000000000000000000000000000000000000000000000815260040161244d90613e16565b60405180910390fd5b505050565b600061247c8473ffffffffffffffffffffffffffffffffffffffff1661292d565b156125e5578373ffffffffffffffffffffffffffffffffffffffff1663150b7a026124a5611acc565b8786866040518563ffffffff1660e01b81526004016124c79493929190613e8b565b602060405180830381600087803b1580156124e157600080fd5b505af192505050801561251257506040513d601f19601f8201168201806040525081019061250f9190613eec565b60015b612595573d8060008114612542576040519150601f19603f3d011682016040523d82523d6000602084013e612547565b606091505b5060008151141561258d576040517f08c379a000000000000000000000000000000000000000000000000000000000815260040161258490613e16565b60405180910390fd5b805181602001fd5b63150b7a0260e01b7bffffffffffffffffffffffffffffffffffffffffffffffffffffffff1916817bffffffffffffffffffffffffffffffffffffffffffffffffffffffff1916149150506125ea565b600190505b949350505050565b6060600082141561263a576040518060400160405280600181526020017f3000000000000000000000000000000000000000000000000000000000000000815250905061274e565b600082905060005b6000821461266c578080612655906135a7565b915050600a826126659190613f48565b9150612642565b60008167ffffffffffffffff81111561268857612687612f31565b5b6040519080825280601f01601f1916602001820160405280156126ba5781602001600182028036833780820191505090505b5090505b60008514612747576001826126d39190613b09565b9150600a856126e29190613f79565b60306126ee9190613551565b60f81b818381518110612704576127036135f0565b5b60200101907effffffffffffffffffffffffffffffffffffffffffffffffffffffffffffff1916908160001a905350600a856127409190613f48565b94506126be565b8093505050505b919050565b600073ffffffffffffffffffffffffffffffffffffffff168273ffffffffffffffffffffffffffffffffffffffff1614156127c3576040517f08c379a00000000000000000000000000000000000000000000000000000000081526004016127ba90613ff6565b60405180910390fd5b6127cc8161238a565b1561280c576040517f08c379a000000000000000000000000000000000000000000000000000000000815260040161280390614062565b60405180910390fd5b612818600083836123f6565b6001600360008473ffffffffffffffffffffffffffffffffffffffff1673ffffffffffffffffffffffffffffffffffffffff16815260200190815260200160002060008282546128689190613551565b92505081905550816002600083815260200190815260200160002060006101000a81548173ffffffffffffffffffffffffffffffffffffffff021916908373ffffffffffffffffffffffffffffffffffffffff160217905550808273ffffffffffffffffffffffffffffffffffffffff16600073ffffffffffffffffffffffffffffffffffffffff167fddf252ad1be2c89b69c2b068fc378daa952ba7f163c4a11628f55a4df523b3ef60405160405180910390a4612929600083836123fb565b5050565b6000808273ffffffffffffffffffffffffffffffffffffffff163b119050919050565b6040518060a0016040528060008152602001600073ffffffffffffffffffffffffffffffffffffffff168152602001600073ffffffffffffffffffffffffffffffffffffffff168152602001600081526020016000151581525090565b8280546129b99061333a565b90600052602060002090601f0160209004810192826129db5760008555612a22565b82601f106129f457805160ff1916838001178555612a22565b82800160010185558215612a22579182015b82811115612a21578251825591602001919060010190612a06565b5b509050612a2f9190612a33565b5090565b5b80821115612a4c576000816000905550600101612a34565b5090565b6000604051905090565b600080fd5b600080fd5b60007fffffffff0000000000000000000000000000000000000000000000000000000082169050919050565b612a9981612a64565b8114612aa457600080fd5b50565b600081359050612ab681612a90565b92915050565b600060208284031215612ad257612ad1612a5a565b5b6000612ae084828501612aa7565b91505092915050565b60008115159050919050565b612afe81612ae9565b82525050565b6000602082019050612b196000830184612af5565b92915050565b600081519050919050565b600082825260208201905092915050565b60005b83811015612b59578082015181840152602081019050612b3e565b83811115612b68576000848401525b50505050565b6000601f19601f8301169050919050565b6000612b8a82612b1f565b612b948185612b2a565b9350612ba4818560208601612b3b565b612bad81612b6e565b840191505092915050565b60006020820190508181036000830152612bd28184612b7f565b905092915050565b6000819050919050565b612bed81612bda565b8114612bf857600080fd5b50565b600081359050612c0a81612be4565b92915050565b600060208284031215612c2657612c25612a5a565b5b6000612c3484828501612bfb565b91505092915050565b600073ffffffffffffffffffffffffffffffffffffffff82169050919050565b6000612c6882612c3d565b9050919050565b612c7881612c5d565b82525050565b6000602082019050612c936000830184612c6f565b92915050565b612ca281612c5d565b8114612cad57600080fd5b50565b600081359050612cbf81612c99565b92915050565b60008060408385031215612cdc57612cdb612a5a565b5b6000612cea85828601612cb0565b9250506020612cfb85828601612bfb565b9150509250929050565b600080600060608486031215612d1e57612d1d612a5a565b5b6000612d2c86828701612cb0565b9350506020612d3d86828701612cb0565b9250506040612d4e86828701612bfb565b9150509250925092565b600081519050919050565b600082825260208201905092915050565b6000819050602082019050919050565b612d8d81612bda565b82525050565b6000612d9e82612c3d565b9050919050565b612dae81612d93565b82525050565b612dbd81612ae9565b82525050565b60a082016000820151612dd96000850182612d84565b506020820151612dec6020850182612da5565b506040820151612dff6040850182612da5565b506060820151612e126060850182612d84565b506080820151612e256080850182612db4565b50505050565b6000612e378383612dc3565b60a08301905092915050565b6000602082019050919050565b6000612e5b82612d58565b612e658185612d63565b9350612e7083612d74565b8060005b83811015612ea1578151612e888882612e2b565b9750612e9383612e43565b925050600181019050612e74565b5085935050505092915050565b60006020820190508181036000830152612ec88184612e50565b905092915050565b612ed981612bda565b82525050565b6000602082019050612ef46000830184612ed0565b92915050565b600060208284031215612f1057612f0f612a5a565b5b6000612f1e84828501612cb0565b91505092915050565b600080fd5b600080fd5b7f4e487b7100000000000000000000000000000000000000000000000000000000600052604160045260246000fd5b612f6982612b6e565b810181811067ffffffffffffffff82111715612f8857612f87612f31565b5b80604052505050565b6000612f9b612a50565b9050612fa78282612f60565b919050565b600067ffffffffffffffff821115612fc757612fc6612f31565b5b612fd082612b6e565b9050602081019050919050565b82818337600083830152505050565b6000612fff612ffa84612fac565b612f91565b90508281526020810184848401111561301b5761301a612f2c565b5b613026848285612fdd565b509392505050565b600082601f83011261304357613042612f27565b5b8135613053848260208601612fec565b91505092915050565b6000806040838503121561307357613072612a5a565b5b600083013567ffffffffffffffff81111561309157613090612a5f565b5b61309d8582860161302e565b92505060206130ae85828601612bfb565b9150509250929050565b60a0820160008201516130ce6000850182612d84565b5060208201516130e16020850182612da5565b5060408201516130f46040850182612da5565b5060608201516131076060850182612d84565b50608082015161311a6080850182612db4565b50505050565b600060a08201905061313560008301846130b8565b92915050565b61314481612ae9565b811461314f57600080fd5b50565b6000813590506131618161313b565b92915050565b6000806040838503121561317e5761317d612a5a565b5b600061318c85828601612cb0565b925050602061319d85828601613152565b9150509250929050565b600067ffffffffffffffff8211156131c2576131c1612f31565b5b6131cb82612b6e565b9050602081019050919050565b60006131eb6131e6846131a7565b612f91565b90508281526020810184848401111561320757613206612f2c565b5b613212848285612fdd565b509392505050565b600082601f83011261322f5761322e612f27565b5b813561323f8482602086016131d8565b91505092915050565b6000806000806080858703121561326257613261612a5a565b5b600061327087828801612cb0565b945050602061328187828801612cb0565b935050604061329287828801612bfb565b925050606085013567ffffffffffffffff8111156132b3576132b2612a5f565b5b6132bf8782880161321a565b91505092959194509250565b600080604083850312156132e2576132e1612a5a565b5b60006132f085828601612cb0565b925050602061330185828601612cb0565b9150509250929050565b7f4e487b7100000000000000000000000000000000000000000000000000000000600052602260045260246000fd5b6000600282049050600182168061335257607f821691505b602082108114156133665761336561330b565b5b50919050565b7f4552433732313a20617070726f76616c20746f2063757272656e74206f776e6560008201527f7200000000000000000000000000000000000000000000000000000000000000602082015250565b60006133c8602183612b2a565b91506133d38261336c565b604082019050919050565b600060208201905081810360008301526133f7816133bb565b9050919050565b7f4552433732313a20617070726f76652063616c6c6572206973206e6f7420746f60008201527f6b656e206f776e6572206e6f7220617070726f76656420666f7220616c6c0000602082015250565b600061345a603e83612b2a565b9150613465826133fe565b604082019050919050565b600060208201905081810360008301526134898161344d565b9050919050565b7f4552433732313a2063616c6c6572206973206e6f7420746f6b656e206f776e6560008201527f72206e6f7220617070726f766564000000000000000000000000000000000000602082015250565b60006134ec602e83612b2a565b91506134f782613490565b604082019050919050565b6000602082019050818103600083015261351b816134df565b9050919050565b7f4e487b7100000000000000000000000000000000000000000000000000000000600052601160045260246000fd5b600061355c82612bda565b915061356783612bda565b9250827fffffffffffffffffffffffffffffffffffffffffffffffffffffffffffffffff0382111561359c5761359b613522565b5b828201905092915050565b60006135b282612bda565b91507fffffffffffffffffffffffffffffffffffffffffffffffffffffffffffffffff8214156135e5576135e4613522565b5b600182019050919050565b7f4e487b7100000000000000000000000000000000000000000000000000000000600052603260045260246000fd5b7f4552433732313a20696e76616c696420746f6b656e2049440000000000000000600082015250565b6000613655601883612b2a565b91506136608261361f565b602082019050919050565b6000602082019050818103600083015261368481613648565b9050919050565b7f4552433732313a2061646472657373207a65726f206973206e6f74206120766160008201527f6c6964206f776e65720000000000000000000000000000000000000000000000602082015250565b60006136e7602983612b2a565b91506136f28261368b565b604082019050919050565b60006020820190508181036000830152613716816136da565b9050919050565b7f506c65617365207375626d6974207468652061736b696e67207072696365206960008201527f6e206f7264657220746f20636f6d706c65746520746865207075726368617365602082015250565b6000613779604083612b2a565b91506137848261371d565b604082019050919050565b600060208201905081810360008301526137a88161376c565b9050919050565b7f596f752063616e742062757920796f7572206f776e2063617264000000000000600082015250565b60006137e5601a83612b2a565b91506137f0826137af565b602082019050919050565b60006020820190508181036000830152613814816137d8565b9050919050565b7f796f75206172656e7420746865206f776e657200000000000000000000000000600082015250565b6000613851601383612b2a565b915061385c8261381b565b602082019050919050565b6000602082019050818103600083015261388081613844565b9050919050565b7f436172642069736e74206c697374656400000000000000000000000000000000600082015250565b60006138bd601083612b2a565b91506138c882613887565b602082019050919050565b600060208201905081810360008301526138ec816138b0565b9050919050565b7f4f6e6c79206f776e65722063616e20757064617465206c697374696e6720707260008201527f6963650000000000000000000000000000000000000000000000000000000000602082015250565b600061394f602383612b2a565b915061395a826138f3565b604082019050919050565b6000602082019050818103600083015261397e81613942565b9050919050565b600081905092915050565b600061399b82612b1f565b6139a58185613985565b93506139b5818560208601612b3b565b80840191505092915050565b60006139cd8285613990565b91506139d98284613990565b91508190509392505050565b7f4552433732313a207472616e736665722066726f6d20696e636f72726563742060008201527f6f776e6572000000000000000000000000000000000000000000000000000000602082015250565b6000613a41602583612b2a565b9150613a4c826139e5565b604082019050919050565b60006020820190508181036000830152613a7081613a34565b9050919050565b7f4552433732313a207472616e7366657220746f20746865207a65726f2061646460008201527f7265737300000000000000000000000000000000000000000000000000000000602082015250565b6000613ad3602483612b2a565b9150613ade82613a77565b604082019050919050565b60006020820190508181036000830152613b0281613ac6565b9050919050565b6000613b1482612bda565b9150613b1f83612bda565b925082821015613b3257613b31613522565b5b828203905092915050565b7f45524337323155524953746f726167653a2055524920736574206f66206e6f6e60008201527f6578697374656e7420746f6b656e000000000000000000000000000000000000602082015250565b6000613b99602e83612b2a565b9150613ba482613b3d565b604082019050919050565b60006020820190508181036000830152613bc881613b8c565b9050919050565b7f486f706566756c6c792073656e64696e672074686520636f727265637420707260008201527f6963650000000000000000000000000000000000000000000000000000000000602082015250565b6000613c2b602383612b2a565b9150613c3682613bcf565b604082019050919050565b60006020820190508181036000830152613c5a81613c1e565b9050919050565b7f4d616b652073757265207468652070726963652069736e2774206e656761746960008201527f7665000000000000000000000000000000000000000000000000000000000000602082015250565b6000613cbd602283612b2a565b9150613cc882613c61565b604082019050919050565b60006020820190508181036000830152613cec81613cb0565b9050919050565b6000608082019050613d086000830187612c6f565b613d156020830186612c6f565b613d226040830185612ed0565b613d2f6060830184612af5565b95945050505050565b7f4552433732313a20617070726f766520746f2063616c6c657200000000000000600082015250565b6000613d6e601983612b2a565b9150613d7982613d38565b602082019050919050565b60006020820190508181036000830152613d9d81613d61565b9050919050565b7f4552433732313a207472616e7366657220746f206e6f6e20455243373231526560008201527f63656976657220696d706c656d656e7465720000000000000000000000000000602082015250565b6000613e00603283612b2a565b9150613e0b82613da4565b604082019050919050565b60006020820190508181036000830152613e2f81613df3565b9050919050565b600081519050919050565b600082825260208201905092915050565b6000613e5d82613e36565b613e678185613e41565b9350613e77818560208601612b3b565b613e8081612b6e565b840191505092915050565b6000608082019050613ea06000830187612c6f565b613ead6020830186612c6f565b613eba6040830185612ed0565b8181036060830152613ecc8184613e52565b905095945050505050565b600081519050613ee681612a90565b92915050565b600060208284031215613f0257613f01612a5a565b5b6000613f1084828501613ed7565b91505092915050565b7f4e487b7100000000000000000000000000000000000000000000000000000000600052601260045260246000fd5b6000613f5382612bda565b9150613f5e83612bda565b925082613f6e57613f6d613f19565b5b828204905092915050565b6000613f8482612bda565b9150613f8f83612bda565b925082613f9f57613f9e613f19565b5b828206905092915050565b7f4552433732313a206d696e7420746f20746865207a65726f2061646472657373600082015250565b6000613fe0602083612b2a565b9150613feb82613faa565b602082019050919050565b6000602082019050818103600083015261400f81613fd3565b9050919050565b7f4552433732313a20746f6b656e20616c7265616479206d696e74656400000000600082015250565b600061404c601c83612b2a565b915061405782614016565b602082019050919050565b6000602082019050818103600083015261407b8161403f565b905091905056fea2646970667358221220e95a67b0373cd908e2b5b681549185eec316c3b853f41ab8088625d4521d88ac64736f6c63430008090033",
  "linkReferences": {},
  "deployedLinkReferences": {}
}