{
  "_format": "hh-sol-artifact-1",
  "contractName": "NFTMarketplace",
  "sourceName": "contracts/MyNFT.sol",
  "abi": [
    {
      "inputs": [],
      "stateMutability": "nonpayable",
      "type": "constructor"
    },
    {
      "anonymous": false,
      "inputs": [
        {
          "indexed": true,
          "internalType": "address",
          "name": "owner",
          "type": "address"
        },
        {
          "indexed": true,
          "internalType": "address",
          "name": "approved",
          "type": "address"
        },
        {
          "indexed": true,
          "internalType": "uint256",
          "name": "tokenId",
          "type": "uint256"
        }
      ],
      "name": "Approval",
      "type": "event"
    },
    {
      "anonymous": false,
      "inputs": [
        {
          "indexed": true,
          "internalType": "address",
          "name": "owner",
          "type": "address"
        },
        {
          "indexed": true,
          "internalType": "address",
          "name": "operator",
          "type": "address"
        },
        {
          "indexed": false,
          "internalType": "bool",
          "name": "approved",
          "type": "bool"
        }
      ],
      "name": "ApprovalForAll",
      "type": "event"
    },
    {
      "anonymous": false,
      "inputs": [
        {
          "indexed": true,
          "internalType": "uint256",
          "name": "tokenId",
          "type": "uint256"
        },
        {
          "indexed": false,
          "internalType": "address",
          "name": "owner",
          "type": "address"
        },
        {
          "indexed": false,
          "internalType": "address",
          "name": "seller",
          "type": "address"
        },
        {
          "indexed": false,
          "internalType": "uint256",
          "name": "price",
          "type": "uint256"
        },
        {
          "indexed": false,
          "internalType": "bool",
          "name": "currentlyListed",
          "type": "bool"
        }
      ],
      "name": "TokenListedSuccess",
      "type": "event"
    },
    {
      "anonymous": false,
      "inputs": [
        {
          "indexed": true,
          "internalType": "address",
          "name": "from",
          "type": "address"
        },
        {
          "indexed": true,
          "internalType": "address",
          "name": "to",
          "type": "address"
        },
        {
          "indexed": true,
          "internalType": "uint256",
          "name": "tokenId",
          "type": "uint256"
        }
      ],
      "name": "Transfer",
      "type": "event"
    },
    {
      "inputs": [
        {
          "internalType": "address",
          "name": "to",
          "type": "address"
        },
        {
          "internalType": "uint256",
          "name": "tokenId",
          "type": "uint256"
        }
      ],
      "name": "approve",
      "outputs": [],
      "stateMutability": "nonpayable",
      "type": "function"
    },
    {
      "inputs": [
        {
          "internalType": "address",
          "name": "owner",
          "type": "address"
        }
      ],
      "name": "balanceOf",
      "outputs": [
        {
          "internalType": "uint256",
          "name": "",
          "type": "uint256"
        }
      ],
      "stateMutability": "view",
      "type": "function"
    },
    {
      "inputs": [
        {
          "internalType": "string",
          "name": "tokenURI",
          "type": "string"
        },
        {
          "internalType": "uint256",
          "name": "price",
          "type": "uint256"
        }
      ],
      "name": "createToken",
      "outputs": [
        {
          "internalType": "uint256",
          "name": "",
          "type": "uint256"
        }
      ],
      "stateMutability": "payable",
      "type": "function"
    },
    {
      "inputs": [
        {
          "internalType": "uint256",
          "name": "tokenId",
          "type": "uint256"
        }
      ],
      "name": "delistToken",
      "outputs": [],
      "stateMutability": "nonpayable",
      "type": "function"
    },
    {
      "inputs": [
        {
          "internalType": "uint256",
          "name": "tokenId",
          "type": "uint256"
        }
      ],
      "name": "executeSale",
      "outputs": [],
      "stateMutability": "payable",
      "type": "function"
    },
    {
      "inputs": [],
      "name": "getAllNFTs",
      "outputs": [
        {
          "components": [
            {
              "internalType": "uint256",
              "name": "tokenId",
              "type": "uint256"
            },
            {
              "internalType": "address payable",
              "name": "owner",
              "type": "address"
            },
            {
              "internalType": "address payable",
              "name": "seller",
              "type": "address"
            },
            {
              "internalType": "uint256",
              "name": "price",
              "type": "uint256"
            },
            {
              "internalType": "bool",
              "name": "currentlyListed",
              "type": "bool"
            }
          ],
          "internalType": "struct NFTMarketplace.ListedToken[]",
          "name": "",
          "type": "tuple[]"
        }
      ],
      "stateMutability": "view",
      "type": "function"
    },
    {
      "inputs": [
        {
          "internalType": "uint256",
          "name": "tokenId",
          "type": "uint256"
        }
      ],
      "name": "getApproved",
      "outputs": [
        {
          "internalType": "address",
          "name": "",
          "type": "address"
        }
      ],
      "stateMutability": "view",
      "type": "function"
    },
    {
      "inputs": [],
      "name": "getCurrentToken",
      "outputs": [
        {
          "internalType": "uint256",
          "name": "",
          "type": "uint256"
        }
      ],
      "stateMutability": "view",
      "type": "function"
    },
    {
      "inputs": [],
      "name": "getLatestIdToListedToken",
      "outputs": [
        {
          "components": [
            {
              "internalType": "uint256",
              "name": "tokenId",
              "type": "uint256"
            },
            {
              "internalType": "address payable",
              "name": "owner",
              "type": "address"
            },
            {
              "internalType": "address payable",
              "name": "seller",
              "type": "address"
            },
            {
              "internalType": "uint256",
              "name": "price",
              "type": "uint256"
            },
            {
              "internalType": "bool",
              "name": "currentlyListed",
              "type": "bool"
            }
          ],
          "internalType": "struct NFTMarketplace.ListedToken",
          "name": "",
          "type": "tuple"
        }
      ],
      "stateMutability": "view",
      "type": "function"
    },
    {
      "inputs": [],
      "name": "getListPrice",
      "outputs": [
        {
          "internalType": "uint256",
          "name": "",
          "type": "uint256"
        }
      ],
      "stateMutability": "view",
      "type": "function"
    },
    {
      "inputs": [
        {
          "internalType": "uint256",
          "name": "tokenId",
          "type": "uint256"
        }
      ],
      "name": "getListedTokenForId",
      "outputs": [
        {
          "components": [
            {
              "internalType": "uint256",
              "name": "tokenId",
              "type": "uint256"
            },
            {
              "internalType": "address payable",
              "name": "owner",
              "type": "address"
            },
            {
              "internalType": "address payable",
              "name": "seller",
              "type": "address"
            },
            {
              "internalType": "uint256",
              "name": "price",
              "type": "uint256"
            },
            {
              "internalType": "bool",
              "name": "currentlyListed",
              "type": "bool"
            }
          ],
          "internalType": "struct NFTMarketplace.ListedToken",
          "name": "",
          "type": "tuple"
        }
      ],
      "stateMutability": "view",
      "type": "function"
    },
    {
      "inputs": [],
      "name": "getMyNFTs",
      "outputs": [
        {
          "components": [
            {
              "internalType": "uint256",
              "name": "tokenId",
              "type": "uint256"
            },
            {
              "internalType": "address payable",
              "name": "owner",
              "type": "address"
            },
            {
              "internalType": "address payable",
              "name": "seller",
              "type": "address"
            },
            {
              "internalType": "uint256",
              "name": "price",
              "type": "uint256"
            },
            {
              "internalType": "bool",
              "name": "currentlyListed",
              "type": "bool"
            }
          ],
          "internalType": "struct NFTMarketplace.ListedToken[]",
          "name": "",
          "type": "tuple[]"
        }
      ],
      "stateMutability": "view",
      "type": "function"
    },
    {
      "inputs": [
        {
          "internalType": "address",
          "name": "owner",
          "type": "address"
        },
        {
          "internalType": "address",
          "name": "operator",
          "type": "address"
        }
      ],
      "name": "isApprovedForAll",
      "outputs": [
        {
          "internalType": "bool",
          "name": "",
          "type": "bool"
        }
      ],
      "stateMutability": "view",
      "type": "function"
    },
    {
      "inputs": [],
      "name": "name",
      "outputs": [
        {
          "internalType": "string",
          "name": "",
          "type": "string"
        }
      ],
      "stateMutability": "view",
      "type": "function"
    },
    {
      "inputs": [
        {
          "internalType": "uint256",
          "name": "tokenId",
          "type": "uint256"
        }
      ],
      "name": "ownerOf",
      "outputs": [
        {
          "internalType": "address",
          "name": "",
          "type": "address"
        }
      ],
      "stateMutability": "view",
      "type": "function"
    },
    {
      "inputs": [
        {
          "internalType": "address",
          "name": "from",
          "type": "address"
        },
        {
          "internalType": "address",
          "name": "to",
          "type": "address"
        },
        {
          "internalType": "uint256",
          "name": "tokenId",
          "type": "uint256"
        }
      ],
      "name": "safeTransferFrom",
      "outputs": [],
      "stateMutability": "nonpayable",
      "type": "function"
    },
    {
      "inputs": [
        {
          "internalType": "address",
          "name": "from",
          "type": "address"
        },
        {
          "internalType": "address",
          "name": "to",
          "type": "address"
        },
        {
          "internalType": "uint256",
          "name": "tokenId",
          "type": "uint256"
        },
        {
          "internalType": "bytes",
          "name": "data",
          "type": "bytes"
        }
      ],
      "name": "safeTransferFrom",
      "outputs": [],
      "stateMutability": "nonpayable",
      "type": "function"
    },
    {
      "inputs": [
        {
          "internalType": "address",
          "name": "operator",
          "type": "address"
        },
        {
          "internalType": "bool",
          "name": "approved",
          "type": "bool"
        }
      ],
      "name": "setApprovalForAll",
      "outputs": [],
      "stateMutability": "nonpayable",
      "type": "function"
    },
    {
      "inputs": [
        {
          "internalType": "bytes4",
          "name": "interfaceId",
          "type": "bytes4"
        }
      ],
      "name": "supportsInterface",
      "outputs": [
        {
          "internalType": "bool",
          "name": "",
          "type": "bool"
        }
      ],
      "stateMutability": "view",
      "type": "function"
    },
    {
      "inputs": [],
      "name": "symbol",
      "outputs": [
        {
          "internalType": "string",
          "name": "",
          "type": "string"
        }
      ],
      "stateMutability": "view",
      "type": "function"
    },
    {
      "inputs": [
        {
          "internalType": "uint256",
          "name": "tokenId",
          "type": "uint256"
        }
      ],
      "name": "tokenURI",
      "outputs": [
        {
          "internalType": "string",
          "name": "",
          "type": "string"
        }
      ],
      "stateMutability": "view",
      "type": "function"
    },
    {
      "inputs": [
        {
          "internalType": "address",
          "name": "from",
          "type": "address"
        },
        {
          "internalType": "address",
          "name": "to",
          "type": "address"
        },
        {
          "internalType": "uint256",
          "name": "tokenId",
          "type": "uint256"
        }
      ],
      "name": "transferFrom",
      "outputs": [],
      "stateMutability": "nonpayable",
      "type": "function"
    },
    {
      "inputs": [
        {
          "internalType": "uint256",
          "name": "_listPrice",
          "type": "uint256"
        }
      ],
      "name": "updateListPrice",
      "outputs": [],
      "stateMutability": "payable",
      "type": "function"
    },
    {
      "inputs": [
        {
          "internalType": "uint256",
          "name": "tokenId",
          "type": "uint256"
        },
        {
          "internalType": "uint256",
          "name": "price2",
          "type": "uint256"
        }
      ],
      "name": "updatePrice",
      "outputs": [],
      "stateMutability": "nonpayable",
      "type": "function"
    }
  ],
  "bytecode": "0x6080604052662386f26fc10000600a553480156200001c57600080fd5b506040518060400160405280601281526020017f4e4654436172644d61726b6574706c61636500000000000000000000000000008152506040518060400160405280600481526020017f43415244000000000000000000000000000000000000000000000000000000008152508160009080519060200190620000a192919062000104565b508060019080519060200190620000ba92919062000104565b50505033600960006101000a81548173ffffffffffffffffffffffffffffffffffffffff021916908373ffffffffffffffffffffffffffffffffffffffff16021790555062000219565b8280546200011290620001e3565b90600052602060002090601f01602090048101928262000136576000855562000182565b82601f106200015157805160ff191683800117855562000182565b8280016001018555821562000182579182015b828111156200018157825182559160200191906001019062000164565b5b50905062000191919062000195565b5090565b5b80821115620001b057600081600090555060010162000196565b5090565b7f4e487b7100000000000000000000000000000000000000000000000000000000600052602260045260246000fd5b60006002820490506001821680620001fc57607f821691505b60208210811415620002135762000212620001b4565b5b50919050565b61425b80620002296000396000f3fe60806040526004361061014b5760003560e01c80638e264590116100b6578063c322579c1161006f578063c322579c14610498578063c87b56dd146104b4578063d1a88ae5146104f1578063e0391b091461051c578063e985e9c514610547578063ef2d1746146105845761014b565b80638e2645901461039957806395d89b41146103d65780639b1225c414610401578063a22cb4651461041d578063b88d4fde14610446578063bed659bc1461046f5761014b565b8063629cb2e411610108578063629cb2e4146102705780636352211e1461029b57806368f1945f146102d857806370a082311461030357806372b3b6201461034057806382367b2d146103705761014b565b806301ffc9a71461015057806306fdde031461018d578063081812fc146101b8578063095ea7b3146101f557806323b872dd1461021e57806342842e0e14610247575b600080fd5b34801561015c57600080fd5b5061017760048036038101906101729190612bb3565b6105af565b6040516101849190612bfb565b60405180910390f35b34801561019957600080fd5b506101a2610691565b6040516101af9190612caf565b60405180910390f35b3480156101c457600080fd5b506101df60048036038101906101da9190612d07565b610723565b6040516101ec9190612d75565b60405180910390f35b34801561020157600080fd5b5061021c60048036038101906102179190612dbc565b610769565b005b34801561022a57600080fd5b5061024560048036038101906102409190612dfc565b610881565b005b34801561025357600080fd5b5061026e60048036038101906102699190612dfc565b6108e1565b005b34801561027c57600080fd5b50610285610901565b6040516102929190612fa5565b60405180910390f35b3480156102a757600080fd5b506102c260048036038101906102bd9190612d07565b610ce2565b6040516102cf9190612d75565b60405180910390f35b3480156102e457600080fd5b506102ed610d94565b6040516102fa9190612fd6565b60405180910390f35b34801561030f57600080fd5b5061032a60048036038101906103259190612ff1565b610d9e565b6040516103379190612fd6565b60405180910390f35b61035a60048036038101906103559190613153565b610e56565b6040516103679190612fd6565b60405180910390f35b34801561037c57600080fd5b50610397600480360381019061039291906131af565b610e98565b005b3480156103a557600080fd5b506103c060048036038101906103bb9190612d07565b610f5b565b6040516103cd9190613257565b60405180910390f35b3480156103e257600080fd5b506103eb611063565b6040516103f89190612caf565b60405180910390f35b61041b60048036038101906104169190612d07565b6110f5565b005b34801561042957600080fd5b50610444600480360381019061043f919061329e565b61138c565b005b34801561045257600080fd5b5061046d6004803603810190610468919061337f565b6113a2565b005b34801561047b57600080fd5b5061049660048036038101906104919190612d07565b611404565b005b6104b260048036038101906104ad9190612d07565b6115a4565b005b3480156104c057600080fd5b506104db60048036038101906104d69190612d07565b61163e565b6040516104e89190612caf565b60405180910390f35b3480156104fd57600080fd5b50610506611751565b6040516105139190613257565b60405180910390f35b34801561052857600080fd5b50610531611866565b60405161053e9190612fa5565b60405180910390f35b34801561055357600080fd5b5061056e60048036038101906105699190613402565b611a69565b60405161057b9190612bfb565b60405180910390f35b34801561059057600080fd5b50610599611afd565b6040516105a69190612fd6565b60405180910390f35b60007f80ac58cd000000000000000000000000000000000000000000000000000000007bffffffffffffffffffffffffffffffffffffffffffffffffffffffff1916827bffffffffffffffffffffffffffffffffffffffffffffffffffffffff1916148061067a57507f5b5e139f000000000000000000000000000000000000000000000000000000007bffffffffffffffffffffffffffffffffffffffffffffffffffffffff1916827bffffffffffffffffffffffffffffffffffffffffffffffffffffffff1916145b8061068a575061068982611b0e565b5b9050919050565b6060600080546106a090613471565b80601f01602080910402602001604051908101604052809291908181526020018280546106cc90613471565b80156107195780601f106106ee57610100808354040283529160200191610719565b820191906000526020600020905b8154815290600101906020018083116106fc57829003601f168201915b5050505050905090565b600061072e82611b78565b6004600083815260200190815260200160002060009054906101000a900473ffffffffffffffffffffffffffffffffffffffff169050919050565b600061077482610ce2565b90508073ffffffffffffffffffffffffffffffffffffffff168373ffffffffffffffffffffffffffffffffffffffff1614156107e5576040517f08c379a00000000000000000000000000000000000000000000000000000000081526004016107dc90613515565b60405180910390fd5b8073ffffffffffffffffffffffffffffffffffffffff16610804611bc3565b73ffffffffffffffffffffffffffffffffffffffff16148061083357506108328161082d611bc3565b611a69565b5b610872576040517f08c379a0000000000000000000000000000000000000000000000000000000008152600401610869906135a7565b60405180910390fd5b61087c8383611bcb565b505050565b61089261088c611bc3565b82611c84565b6108d1576040517f08c379a00000000000000000000000000000000000000000000000000000000081526004016108c890613639565b60405180910390fd5b6108dc838383611d19565b505050565b6108fc838383604051806020016040528060008152506113a2565b505050565b6060600061090f6007611f80565b9050600080600080600090505b84811015610a35573373ffffffffffffffffffffffffffffffffffffffff16600b600060018461094c9190613688565b815260200190815260200160002060010160009054906101000a900473ffffffffffffffffffffffffffffffffffffffff1673ffffffffffffffffffffffffffffffffffffffff161480610a0d57503373ffffffffffffffffffffffffffffffffffffffff16600b60006001846109c39190613688565b815260200190815260200160002060020160009054906101000a900473ffffffffffffffffffffffffffffffffffffffff1673ffffffffffffffffffffffffffffffffffffffff16145b15610a2257600184610a1f9190613688565b93505b8080610a2d906136de565b91505061091c565b5060008367ffffffffffffffff811115610a5257610a51613028565b5b604051908082528060200260200182016040528015610a8b57816020015b610a78612a47565b815260200190600190039081610a705790505b50905060005b85811015610cd6573373ffffffffffffffffffffffffffffffffffffffff16600b6000600184610ac19190613688565b815260200190815260200160002060010160009054906101000a900473ffffffffffffffffffffffffffffffffffffffff1673ffffffffffffffffffffffffffffffffffffffff161480610b8257503373ffffffffffffffffffffffffffffffffffffffff16600b6000600184610b389190613688565b815260200190815260200160002060020160009054906101000a900473ffffffffffffffffffffffffffffffffffffffff1673ffffffffffffffffffffffffffffffffffffffff16145b15610cc357600181610b949190613688565b92506000600b60008581526020019081526020016000209050806040518060a0016040529081600082015481526020016001820160009054906101000a900473ffffffffffffffffffffffffffffffffffffffff1673ffffffffffffffffffffffffffffffffffffffff1673ffffffffffffffffffffffffffffffffffffffff1681526020016002820160009054906101000a900473ffffffffffffffffffffffffffffffffffffffff1673ffffffffffffffffffffffffffffffffffffffff1673ffffffffffffffffffffffffffffffffffffffff168152602001600382015481526020016004820160009054906101000a900460ff161515151581525050838681518110610ca757610ca6613727565b5b6020026020010181905250600185610cbf9190613688565b9450505b8080610cce906136de565b915050610a91565b50809550505050505090565b6000806002600084815260200190815260200160002060009054906101000a900473ffffffffffffffffffffffffffffffffffffffff169050600073ffffffffffffffffffffffffffffffffffffffff168173ffffffffffffffffffffffffffffffffffffffff161415610d8b576040517f08c379a0000000000000000000000000000000000000000000000000000000008152600401610d82906137a2565b60405180910390fd5b80915050919050565b6000600a54905090565b60008073ffffffffffffffffffffffffffffffffffffffff168273ffffffffffffffffffffffffffffffffffffffff161415610e0f576040517f08c379a0000000000000000000000000000000000000000000000000000000008152600401610e0690613834565b60405180910390fd5b600360008373ffffffffffffffffffffffffffffffffffffffff1673ffffffffffffffffffffffffffffffffffffffff168152602001908152602001600020549050919050565b6000610e626007611f8e565b6000610e6e6007611f80565b9050610e7a3382611fa4565b610e848185611fc2565b610e8e8184612036565b8091505092915050565b3373ffffffffffffffffffffffffffffffffffffffff16600b600084815260200190815260200160002060020160009054906101000a900473ffffffffffffffffffffffffffffffffffffffff1673ffffffffffffffffffffffffffffffffffffffff1614610f3c576040517f08c379a0000000000000000000000000000000000000000000000000000000008152600401610f33906138a0565b60405180910390fd5b80600b6000848152602001908152602001600020600301819055505050565b610f63612a47565b600b60008381526020019081526020016000206040518060a0016040529081600082015481526020016001820160009054906101000a900473ffffffffffffffffffffffffffffffffffffffff1673ffffffffffffffffffffffffffffffffffffffff1673ffffffffffffffffffffffffffffffffffffffff1681526020016002820160009054906101000a900473ffffffffffffffffffffffffffffffffffffffff1673ffffffffffffffffffffffffffffffffffffffff1673ffffffffffffffffffffffffffffffffffffffff168152602001600382015481526020016004820160009054906101000a900460ff1615151515815250509050919050565b60606001805461107290613471565b80601f016020809104026020016040519081016040528092919081815260200182805461109e90613471565b80156110eb5780601f106110c0576101008083540402835291602001916110eb565b820191906000526020600020905b8154815290600101906020018083116110ce57829003601f168201915b5050505050905090565b6000600b60008381526020019081526020016000206003015490506000600b600084815260200190815260200160002060020160009054906101000a900473ffffffffffffffffffffffffffffffffffffffff16905081341461118d576040517f08c379a000000000000000000000000000000000000000000000000000000000815260040161118490613932565b60405180910390fd5b3373ffffffffffffffffffffffffffffffffffffffff16600b600085815260200190815260200160002060020160009054906101000a900473ffffffffffffffffffffffffffffffffffffffff1673ffffffffffffffffffffffffffffffffffffffff161415611232576040517f08c379a00000000000000000000000000000000000000000000000000000000081526004016112299061399e565b60405180910390fd5b6001600b600085815260200190815260200160002060040160006101000a81548160ff02191690831515021790555033600b600085815260200190815260200160002060020160006101000a81548173ffffffffffffffffffffffffffffffffffffffff021916908373ffffffffffffffffffffffffffffffffffffffff1602179055506112c06008611f8e565b6112cb303385611d19565b6112d53084610769565b600960009054906101000a900473ffffffffffffffffffffffffffffffffffffffff1673ffffffffffffffffffffffffffffffffffffffff166108fc600a549081150290604051600060405180830381858888f1935050505015801561133f573d6000803e3d6000fd5b508073ffffffffffffffffffffffffffffffffffffffff166108fc349081150290604051600060405180830381858888f19350505050158015611386573d6000803e3d6000fd5b50505050565b61139e611397611bc3565b8383612239565b5050565b6113b36113ad611bc3565b83611c84565b6113f2576040517f08c379a00000000000000000000000000000000000000000000000000000000081526004016113e990613639565b60405180910390fd5b6113fe848484846123a6565b50505050565b3373ffffffffffffffffffffffffffffffffffffffff16600b600083815260200190815260200160002060020160009054906101000a900473ffffffffffffffffffffffffffffffffffffffff1673ffffffffffffffffffffffffffffffffffffffff16146114a8576040517f08c379a000000000000000000000000000000000000000000000000000000000815260040161149f90613a0a565b60405180910390fd5b60011515600b600083815260200190815260200160002060040160009054906101000a900460ff16151514611512576040517f08c379a000000000000000000000000000000000000000000000000000000000815260040161150990613a76565b60405180910390fd5b6000600b600083815260200190815260200160002060040160006101000a81548160ff02191690831515021790555033600b600083815260200190815260200160002060010160006101000a81548173ffffffffffffffffffffffffffffffffffffffff021916908373ffffffffffffffffffffffffffffffffffffffff1602179055506115a1303383611d19565b50565b3373ffffffffffffffffffffffffffffffffffffffff16600960009054906101000a900473ffffffffffffffffffffffffffffffffffffffff1673ffffffffffffffffffffffffffffffffffffffff1614611634576040517f08c379a000000000000000000000000000000000000000000000000000000000815260040161162b90613b08565b60405180910390fd5b80600a8190555050565b606061164982611b78565b600060066000848152602001908152602001600020805461166990613471565b80601f016020809104026020016040519081016040528092919081815260200182805461169590613471565b80156116e25780601f106116b7576101008083540402835291602001916116e2565b820191906000526020600020905b8154815290600101906020018083116116c557829003601f168201915b5050505050905060006116f3612402565b905060008151141561170957819250505061174c565b60008251111561173e578082604051602001611726929190613b64565b6040516020818303038152906040529250505061174c565b61174784612419565b925050505b919050565b611759612a47565b60006117656007611f80565b9050600b60008281526020019081526020016000206040518060a0016040529081600082015481526020016001820160009054906101000a900473ffffffffffffffffffffffffffffffffffffffff1673ffffffffffffffffffffffffffffffffffffffff1673ffffffffffffffffffffffffffffffffffffffff1681526020016002820160009054906101000a900473ffffffffffffffffffffffffffffffffffffffff1673ffffffffffffffffffffffffffffffffffffffff1673ffffffffffffffffffffffffffffffffffffffff168152602001600382015481526020016004820160009054906101000a900460ff16151515158152505091505090565b606060006118746007611f80565b905060008167ffffffffffffffff81111561189257611891613028565b5b6040519080825280602002602001820160405280156118cb57816020015b6118b8612a47565b8152602001906001900390816118b05790505b50905060008080600090505b84811015611a5e576001816118ec9190613688565b915060011515600b600084815260200190815260200160002060040160009054906101000a900460ff1615151415611a4b576000600b60008481526020019081526020016000209050806040518060a0016040529081600082015481526020016001820160009054906101000a900473ffffffffffffffffffffffffffffffffffffffff1673ffffffffffffffffffffffffffffffffffffffff1673ffffffffffffffffffffffffffffffffffffffff1681526020016002820160009054906101000a900473ffffffffffffffffffffffffffffffffffffffff1673ffffffffffffffffffffffffffffffffffffffff1673ffffffffffffffffffffffffffffffffffffffff168152602001600382015481526020016004820160009054906101000a900460ff161515151581525050858581518110611a2f57611a2e613727565b5b6020026020010181905250600184611a479190613688565b9350505b8080611a56906136de565b9150506118d7565b508294505050505090565b6000600560008473ffffffffffffffffffffffffffffffffffffffff1673ffffffffffffffffffffffffffffffffffffffff16815260200190815260200160002060008373ffffffffffffffffffffffffffffffffffffffff1673ffffffffffffffffffffffffffffffffffffffff16815260200190815260200160002060009054906101000a900460ff16905092915050565b6000611b096007611f80565b905090565b60007f01ffc9a7000000000000000000000000000000000000000000000000000000007bffffffffffffffffffffffffffffffffffffffffffffffffffffffff1916827bffffffffffffffffffffffffffffffffffffffffffffffffffffffff1916149050919050565b611b8181612481565b611bc0576040517f08c379a0000000000000000000000000000000000000000000000000000000008152600401611bb7906137a2565b60405180910390fd5b50565b600033905090565b816004600083815260200190815260200160002060006101000a81548173ffffffffffffffffffffffffffffffffffffffff021916908373ffffffffffffffffffffffffffffffffffffffff160217905550808273ffffffffffffffffffffffffffffffffffffffff16611c3e83610ce2565b73ffffffffffffffffffffffffffffffffffffffff167f8c5be1e5ebec7d5bd14f71427d1e84f3dd0314c0f7b2291e5b200ac8c7c3b92560405160405180910390a45050565b600080611c9083610ce2565b90508073ffffffffffffffffffffffffffffffffffffffff168473ffffffffffffffffffffffffffffffffffffffff161480611cd25750611cd18185611a69565b5b80611d1057508373ffffffffffffffffffffffffffffffffffffffff16611cf884610723565b73ffffffffffffffffffffffffffffffffffffffff16145b91505092915050565b8273ffffffffffffffffffffffffffffffffffffffff16611d3982610ce2565b73ffffffffffffffffffffffffffffffffffffffff1614611d8f576040517f08c379a0000000000000000000000000000000000000000000000000000000008152600401611d8690613bfa565b60405180910390fd5b600073ffffffffffffffffffffffffffffffffffffffff168273ffffffffffffffffffffffffffffffffffffffff161415611dff576040517f08c379a0000000000000000000000000000000000000000000000000000000008152600401611df690613c8c565b60405180910390fd5b611e0a8383836124ed565b611e15600082611bcb565b6001600360008573ffffffffffffffffffffffffffffffffffffffff1673ffffffffffffffffffffffffffffffffffffffff1681526020019081526020016000206000828254611e659190613cac565b925050819055506001600360008473ffffffffffffffffffffffffffffffffffffffff1673ffffffffffffffffffffffffffffffffffffffff1681526020019081526020016000206000828254611ebc9190613688565b92505081905550816002600083815260200190815260200160002060006101000a81548173ffffffffffffffffffffffffffffffffffffffff021916908373ffffffffffffffffffffffffffffffffffffffff160217905550808273ffffffffffffffffffffffffffffffffffffffff168473ffffffffffffffffffffffffffffffffffffffff167fddf252ad1be2c89b69c2b068fc378daa952ba7f163c4a11628f55a4df523b3ef60405160405180910390a4611f7b8383836124f2565b505050565b600081600001549050919050565b6001816000016000828254019250508190555050565b611fbe8282604051806020016040528060008152506124f7565b5050565b611fcb82612481565b61200a576040517f08c379a000000000000000000000000000000000000000000000000000000000815260040161200190613d52565b60405180910390fd5b80600660008481526020019081526020016000209080519060200190612031929190612aa4565b505050565b600a54341461207a576040517f08c379a000000000000000000000000000000000000000000000000000000000815260040161207190613de4565b60405180910390fd5b600081116120bd576040517f08c379a00000000000000000000000000000000000000000000000000000000081526004016120b490613e76565b60405180910390fd5b6040518060a001604052808381526020013073ffffffffffffffffffffffffffffffffffffffff1681526020013373ffffffffffffffffffffffffffffffffffffffff16815260200182815260200160011515815250600b60008481526020019081526020016000206000820151816000015560208201518160010160006101000a81548173ffffffffffffffffffffffffffffffffffffffff021916908373ffffffffffffffffffffffffffffffffffffffff16021790555060408201518160020160006101000a81548173ffffffffffffffffffffffffffffffffffffffff021916908373ffffffffffffffffffffffffffffffffffffffff1602179055506060820151816003015560808201518160040160006101000a81548160ff0219169083151502179055509050506121f6333084611d19565b817f9339409317fd01fabff48b703019016f49159bacc801ae872d2ca637d226e4c0303384600160405161222d9493929190613e96565b60405180910390a25050565b8173ffffffffffffffffffffffffffffffffffffffff168373ffffffffffffffffffffffffffffffffffffffff1614156122a8576040517f08c379a000000000000000000000000000000000000000000000000000000000815260040161229f90613f27565b60405180910390fd5b80600560008573ffffffffffffffffffffffffffffffffffffffff1673ffffffffffffffffffffffffffffffffffffffff16815260200190815260200160002060008473ffffffffffffffffffffffffffffffffffffffff1673ffffffffffffffffffffffffffffffffffffffff16815260200190815260200160002060006101000a81548160ff0219169083151502179055508173ffffffffffffffffffffffffffffffffffffffff168373ffffffffffffffffffffffffffffffffffffffff167f17307eab39ab6107e8899845ad3d59bd9653f200f220920489ca2b5937696c31836040516123999190612bfb565b60405180910390a3505050565b6123b1848484611d19565b6123bd84848484612552565b6123fc576040517f08c379a00000000000000000000000000000000000000000000000000000000081526004016123f390613fb9565b60405180910390fd5b50505050565b606060405180602001604052806000815250905090565b606061242482611b78565b600061242e612402565b9050600081511161244e5760405180602001604052806000815250612479565b80612458846126e9565b604051602001612469929190613b64565b6040516020818303038152906040525b915050919050565b60008073ffffffffffffffffffffffffffffffffffffffff166002600084815260200190815260200160002060009054906101000a900473ffffffffffffffffffffffffffffffffffffffff1673ffffffffffffffffffffffffffffffffffffffff1614159050919050565b505050565b505050565b612501838361284a565b61250e6000848484612552565b61254d576040517f08c379a000000000000000000000000000000000000000000000000000000000815260040161254490613fb9565b60405180910390fd5b505050565b60006125738473ffffffffffffffffffffffffffffffffffffffff16612a24565b156126dc578373ffffffffffffffffffffffffffffffffffffffff1663150b7a0261259c611bc3565b8786866040518563ffffffff1660e01b81526004016125be949392919061402e565b602060405180830381600087803b1580156125d857600080fd5b505af192505050801561260957506040513d601f19601f82011682018060405250810190612606919061408f565b60015b61268c573d8060008114612639576040519150601f19603f3d011682016040523d82523d6000602084013e61263e565b606091505b50600081511415612684576040517f08c379a000000000000000000000000000000000000000000000000000000000815260040161267b90613fb9565b60405180910390fd5b805181602001fd5b63150b7a0260e01b7bffffffffffffffffffffffffffffffffffffffffffffffffffffffff1916817bffffffffffffffffffffffffffffffffffffffffffffffffffffffff1916149150506126e1565b600190505b949350505050565b60606000821415612731576040518060400160405280600181526020017f30000000000000000000000000000000000000000000000000000000000000008152509050612845565b600082905060005b6000821461276357808061274c906136de565b915050600a8261275c91906140eb565b9150612739565b60008167ffffffffffffffff81111561277f5761277e613028565b5b6040519080825280601f01601f1916602001820160405280156127b15781602001600182028036833780820191505090505b5090505b6000851461283e576001826127ca9190613cac565b9150600a856127d9919061411c565b60306127e59190613688565b60f81b8183815181106127fb576127fa613727565b5b60200101907effffffffffffffffffffffffffffffffffffffffffffffffffffffffffffff1916908160001a905350600a8561283791906140eb565b94506127b5565b8093505050505b919050565b600073ffffffffffffffffffffffffffffffffffffffff168273ffffffffffffffffffffffffffffffffffffffff1614156128ba576040517f08c379a00000000000000000000000000000000000000000000000000000000081526004016128b190614199565b60405180910390fd5b6128c381612481565b15612903576040517f08c379a00000000000000000000000000000000000000000000000000000000081526004016128fa90614205565b60405180910390fd5b61290f600083836124ed565b6001600360008473ffffffffffffffffffffffffffffffffffffffff1673ffffffffffffffffffffffffffffffffffffffff168152602001908152602001600020600082825461295f9190613688565b92505081905550816002600083815260200190815260200160002060006101000a81548173ffffffffffffffffffffffffffffffffffffffff021916908373ffffffffffffffffffffffffffffffffffffffff160217905550808273ffffffffffffffffffffffffffffffffffffffff16600073ffffffffffffffffffffffffffffffffffffffff167fddf252ad1be2c89b69c2b068fc378daa952ba7f163c4a11628f55a4df523b3ef60405160405180910390a4612a20600083836124f2565b5050565b6000808273ffffffffffffffffffffffffffffffffffffffff163b119050919050565b6040518060a0016040528060008152602001600073ffffffffffffffffffffffffffffffffffffffff168152602001600073ffffffffffffffffffffffffffffffffffffffff168152602001600081526020016000151581525090565b828054612ab090613471565b90600052602060002090601f016020900481019282612ad25760008555612b19565b82601f10612aeb57805160ff1916838001178555612b19565b82800160010185558215612b19579182015b82811115612b18578251825591602001919060010190612afd565b5b509050612b269190612b2a565b5090565b5b80821115612b43576000816000905550600101612b2b565b5090565b6000604051905090565b600080fd5b600080fd5b60007fffffffff0000000000000000000000000000000000000000000000000000000082169050919050565b612b9081612b5b565b8114612b9b57600080fd5b50565b600081359050612bad81612b87565b92915050565b600060208284031215612bc957612bc8612b51565b5b6000612bd784828501612b9e565b91505092915050565b60008115159050919050565b612bf581612be0565b82525050565b6000602082019050612c106000830184612bec565b92915050565b600081519050919050565b600082825260208201905092915050565b60005b83811015612c50578082015181840152602081019050612c35565b83811115612c5f576000848401525b50505050565b6000601f19601f8301169050919050565b6000612c8182612c16565b612c8b8185612c21565b9350612c9b818560208601612c32565b612ca481612c65565b840191505092915050565b60006020820190508181036000830152612cc98184612c76565b905092915050565b6000819050919050565b612ce481612cd1565b8114612cef57600080fd5b50565b600081359050612d0181612cdb565b92915050565b600060208284031215612d1d57612d1c612b51565b5b6000612d2b84828501612cf2565b91505092915050565b600073ffffffffffffffffffffffffffffffffffffffff82169050919050565b6000612d5f82612d34565b9050919050565b612d6f81612d54565b82525050565b6000602082019050612d8a6000830184612d66565b92915050565b612d9981612d54565b8114612da457600080fd5b50565b600081359050612db681612d90565b92915050565b60008060408385031215612dd357612dd2612b51565b5b6000612de185828601612da7565b9250506020612df285828601612cf2565b9150509250929050565b600080600060608486031215612e1557612e14612b51565b5b6000612e2386828701612da7565b9350506020612e3486828701612da7565b9250506040612e4586828701612cf2565b9150509250925092565b600081519050919050565b600082825260208201905092915050565b6000819050602082019050919050565b612e8481612cd1565b82525050565b6000612e9582612d34565b9050919050565b612ea581612e8a565b82525050565b612eb481612be0565b82525050565b60a082016000820151612ed06000850182612e7b565b506020820151612ee36020850182612e9c565b506040820151612ef66040850182612e9c565b506060820151612f096060850182612e7b565b506080820151612f1c6080850182612eab565b50505050565b6000612f2e8383612eba565b60a08301905092915050565b6000602082019050919050565b6000612f5282612e4f565b612f5c8185612e5a565b9350612f6783612e6b565b8060005b83811015612f98578151612f7f8882612f22565b9750612f8a83612f3a565b925050600181019050612f6b565b5085935050505092915050565b60006020820190508181036000830152612fbf8184612f47565b905092915050565b612fd081612cd1565b82525050565b6000602082019050612feb6000830184612fc7565b92915050565b60006020828403121561300757613006612b51565b5b600061301584828501612da7565b91505092915050565b600080fd5b600080fd5b7f4e487b7100000000000000000000000000000000000000000000000000000000600052604160045260246000fd5b61306082612c65565b810181811067ffffffffffffffff8211171561307f5761307e613028565b5b80604052505050565b6000613092612b47565b905061309e8282613057565b919050565b600067ffffffffffffffff8211156130be576130bd613028565b5b6130c782612c65565b9050602081019050919050565b82818337600083830152505050565b60006130f66130f1846130a3565b613088565b90508281526020810184848401111561311257613111613023565b5b61311d8482856130d4565b509392505050565b600082601f83011261313a5761313961301e565b5b813561314a8482602086016130e3565b91505092915050565b6000806040838503121561316a57613169612b51565b5b600083013567ffffffffffffffff81111561318857613187612b56565b5b61319485828601613125565b92505060206131a585828601612cf2565b9150509250929050565b600080604083850312156131c6576131c5612b51565b5b60006131d485828601612cf2565b92505060206131e585828601612cf2565b9150509250929050565b60a0820160008201516132056000850182612e7b565b5060208201516132186020850182612e9c565b50604082015161322b6040850182612e9c565b50606082015161323e6060850182612e7b565b5060808201516132516080850182612eab565b50505050565b600060a08201905061326c60008301846131ef565b92915050565b61327b81612be0565b811461328657600080fd5b50565b60008135905061329881613272565b92915050565b600080604083850312156132b5576132b4612b51565b5b60006132c385828601612da7565b92505060206132d485828601613289565b9150509250929050565b600067ffffffffffffffff8211156132f9576132f8613028565b5b61330282612c65565b9050602081019050919050565b600061332261331d846132de565b613088565b90508281526020810184848401111561333e5761333d613023565b5b6133498482856130d4565b509392505050565b600082601f8301126133665761336561301e565b5b813561337684826020860161330f565b91505092915050565b6000806000806080858703121561339957613398612b51565b5b60006133a787828801612da7565b94505060206133b887828801612da7565b93505060406133c987828801612cf2565b925050606085013567ffffffffffffffff8111156133ea576133e9612b56565b5b6133f687828801613351565b91505092959194509250565b6000806040838503121561341957613418612b51565b5b600061342785828601612da7565b925050602061343885828601612da7565b9150509250929050565b7f4e487b7100000000000000000000000000000000000000000000000000000000600052602260045260246000fd5b6000600282049050600182168061348957607f821691505b6020821081141561349d5761349c613442565b5b50919050565b7f4552433732313a20617070726f76616c20746f2063757272656e74206f776e6560008201527f7200000000000000000000000000000000000000000000000000000000000000602082015250565b60006134ff602183612c21565b915061350a826134a3565b604082019050919050565b6000602082019050818103600083015261352e816134f2565b9050919050565b7f4552433732313a20617070726f76652063616c6c6572206973206e6f7420746f60008201527f6b656e206f776e6572206e6f7220617070726f76656420666f7220616c6c0000602082015250565b6000613591603e83612c21565b915061359c82613535565b604082019050919050565b600060208201905081810360008301526135c081613584565b9050919050565b7f4552433732313a2063616c6c6572206973206e6f7420746f6b656e206f776e6560008201527f72206e6f7220617070726f766564000000000000000000000000000000000000602082015250565b6000613623602e83612c21565b915061362e826135c7565b604082019050919050565b6000602082019050818103600083015261365281613616565b9050919050565b7f4e487b7100000000000000000000000000000000000000000000000000000000600052601160045260246000fd5b600061369382612cd1565b915061369e83612cd1565b9250827fffffffffffffffffffffffffffffffffffffffffffffffffffffffffffffffff038211156136d3576136d2613659565b5b828201905092915050565b60006136e982612cd1565b91507fffffffffffffffffffffffffffffffffffffffffffffffffffffffffffffffff82141561371c5761371b613659565b5b600182019050919050565b7f4e487b7100000000000000000000000000000000000000000000000000000000600052603260045260246000fd5b7f4552433732313a20696e76616c696420746f6b656e2049440000000000000000600082015250565b600061378c601883612c21565b915061379782613756565b602082019050919050565b600060208201905081810360008301526137bb8161377f565b9050919050565b7f4552433732313a2061646472657373207a65726f206973206e6f74206120766160008201527f6c6964206f776e65720000000000000000000000000000000000000000000000602082015250565b600061381e602983612c21565b9150613829826137c2565b604082019050919050565b6000602082019050818103600083015261384d81613811565b9050919050565b7f796f7520646f206e6f74206f776e207468697320636172640000000000000000600082015250565b600061388a601883612c21565b915061389582613854565b602082019050919050565b600060208201905081810360008301526138b98161387d565b9050919050565b7f506c65617365207375626d6974207468652061736b696e67207072696365206960008201527f6e206f7264657220746f20636f6d706c65746520746865207075726368617365602082015250565b600061391c604083612c21565b9150613927826138c0565b604082019050919050565b6000602082019050818103600083015261394b8161390f565b9050919050565b7f596f752063616e742062757920796f7572206f776e2063617264000000000000600082015250565b6000613988601a83612c21565b915061399382613952565b602082019050919050565b600060208201905081810360008301526139b78161397b565b9050919050565b7f796f75206172656e7420746865206f776e657200000000000000000000000000600082015250565b60006139f4601383612c21565b91506139ff826139be565b602082019050919050565b60006020820190508181036000830152613a23816139e7565b9050919050565b7f436172642069736e74206c697374656400000000000000000000000000000000600082015250565b6000613a60601083612c21565b9150613a6b82613a2a565b602082019050919050565b60006020820190508181036000830152613a8f81613a53565b9050919050565b7f4f6e6c79206f776e65722063616e20757064617465206c697374696e6720707260008201527f6963650000000000000000000000000000000000000000000000000000000000602082015250565b6000613af2602383612c21565b9150613afd82613a96565b604082019050919050565b60006020820190508181036000830152613b2181613ae5565b9050919050565b600081905092915050565b6000613b3e82612c16565b613b488185613b28565b9350613b58818560208601612c32565b80840191505092915050565b6000613b708285613b33565b9150613b7c8284613b33565b91508190509392505050565b7f4552433732313a207472616e736665722066726f6d20696e636f72726563742060008201527f6f776e6572000000000000000000000000000000000000000000000000000000602082015250565b6000613be4602583612c21565b9150613bef82613b88565b604082019050919050565b60006020820190508181036000830152613c1381613bd7565b9050919050565b7f4552433732313a207472616e7366657220746f20746865207a65726f2061646460008201527f7265737300000000000000000000000000000000000000000000000000000000602082015250565b6000613c76602483612c21565b9150613c8182613c1a565b604082019050919050565b60006020820190508181036000830152613ca581613c69565b9050919050565b6000613cb782612cd1565b9150613cc283612cd1565b925082821015613cd557613cd4613659565b5b828203905092915050565b7f45524337323155524953746f726167653a2055524920736574206f66206e6f6e60008201527f6578697374656e7420746f6b656e000000000000000000000000000000000000602082015250565b6000613d3c602e83612c21565b9150613d4782613ce0565b604082019050919050565b60006020820190508181036000830152613d6b81613d2f565b9050919050565b7f486f706566756c6c792073656e64696e672074686520636f727265637420707260008201527f6963650000000000000000000000000000000000000000000000000000000000602082015250565b6000613dce602383612c21565b9150613dd982613d72565b604082019050919050565b60006020820190508181036000830152613dfd81613dc1565b9050919050565b7f4d616b652073757265207468652070726963652069736e2774206e656761746960008201527f7665000000000000000000000000000000000000000000000000000000000000602082015250565b6000613e60602283612c21565b9150613e6b82613e04565b604082019050919050565b60006020820190508181036000830152613e8f81613e53565b9050919050565b6000608082019050613eab6000830187612d66565b613eb86020830186612d66565b613ec56040830185612fc7565b613ed26060830184612bec565b95945050505050565b7f4552433732313a20617070726f766520746f2063616c6c657200000000000000600082015250565b6000613f11601983612c21565b9150613f1c82613edb565b602082019050919050565b60006020820190508181036000830152613f4081613f04565b9050919050565b7f4552433732313a207472616e7366657220746f206e6f6e20455243373231526560008201527f63656976657220696d706c656d656e7465720000000000000000000000000000602082015250565b6000613fa3603283612c21565b9150613fae82613f47565b604082019050919050565b60006020820190508181036000830152613fd281613f96565b9050919050565b600081519050919050565b600082825260208201905092915050565b600061400082613fd9565b61400a8185613fe4565b935061401a818560208601612c32565b61402381612c65565b840191505092915050565b60006080820190506140436000830187612d66565b6140506020830186612d66565b61405d6040830185612fc7565b818103606083015261406f8184613ff5565b905095945050505050565b60008151905061408981612b87565b92915050565b6000602082840312156140a5576140a4612b51565b5b60006140b38482850161407a565b91505092915050565b7f4e487b7100000000000000000000000000000000000000000000000000000000600052601260045260246000fd5b60006140f682612cd1565b915061410183612cd1565b925082614111576141106140bc565b5b828204905092915050565b600061412782612cd1565b915061413283612cd1565b925082614142576141416140bc565b5b828206905092915050565b7f4552433732313a206d696e7420746f20746865207a65726f2061646472657373600082015250565b6000614183602083612c21565b915061418e8261414d565b602082019050919050565b600060208201905081810360008301526141b281614176565b9050919050565b7f4552433732313a20746f6b656e20616c7265616479206d696e74656400000000600082015250565b60006141ef601c83612c21565b91506141fa826141b9565b602082019050919050565b6000602082019050818103600083015261421e816141e2565b905091905056fea2646970667358221220485c84b2109a1fad7012a94dd53fa56f738e04d3e021d8db3aa7cf5c2b5a8e7664736f6c63430008090033",
  "linkReferences": {},
  "deployedLinkReferences": {}
}