{
  "_format": "hh-sol-artifact-1",
  "contractName": "NFTMarketplace",
  "sourceName": "contracts/MyNFT.sol",
  "abi": [
    {
      "inputs": [],
      "stateMutability": "nonpayable",
      "type": "constructor"
    },
    {
      "anonymous": false,
      "inputs": [
        {
          "indexed": true,
          "internalType": "address",
          "name": "owner",
          "type": "address"
        },
        {
          "indexed": true,
          "internalType": "address",
          "name": "approved",
          "type": "address"
        },
        {
          "indexed": true,
          "internalType": "uint256",
          "name": "tokenId",
          "type": "uint256"
        }
      ],
      "name": "Approval",
      "type": "event"
    },
    {
      "anonymous": false,
      "inputs": [
        {
          "indexed": true,
          "internalType": "address",
          "name": "owner",
          "type": "address"
        },
        {
          "indexed": true,
          "internalType": "address",
          "name": "operator",
          "type": "address"
        },
        {
          "indexed": false,
          "internalType": "bool",
          "name": "approved",
          "type": "bool"
        }
      ],
      "name": "ApprovalForAll",
      "type": "event"
    },
    {
      "anonymous": false,
      "inputs": [
        {
          "indexed": true,
          "internalType": "uint256",
          "name": "tokenId",
          "type": "uint256"
        },
        {
          "indexed": false,
          "internalType": "address",
          "name": "owner",
          "type": "address"
        },
        {
          "indexed": false,
          "internalType": "address",
          "name": "seller",
          "type": "address"
        },
        {
          "indexed": false,
          "internalType": "uint256",
          "name": "price",
          "type": "uint256"
        },
        {
          "indexed": false,
          "internalType": "bool",
          "name": "currentlyListed",
          "type": "bool"
        }
      ],
      "name": "TokenListedSuccess",
      "type": "event"
    },
    {
      "anonymous": false,
      "inputs": [
        {
          "indexed": true,
          "internalType": "address",
          "name": "from",
          "type": "address"
        },
        {
          "indexed": true,
          "internalType": "address",
          "name": "to",
          "type": "address"
        },
        {
          "indexed": true,
          "internalType": "uint256",
          "name": "tokenId",
          "type": "uint256"
        }
      ],
      "name": "Transfer",
      "type": "event"
    },
    {
      "inputs": [
        {
          "internalType": "address",
          "name": "to",
          "type": "address"
        },
        {
          "internalType": "uint256",
          "name": "tokenId",
          "type": "uint256"
        }
      ],
      "name": "approve",
      "outputs": [],
      "stateMutability": "nonpayable",
      "type": "function"
    },
    {
      "inputs": [
        {
          "internalType": "address",
          "name": "owner",
          "type": "address"
        }
      ],
      "name": "balanceOf",
      "outputs": [
        {
          "internalType": "uint256",
          "name": "",
          "type": "uint256"
        }
      ],
      "stateMutability": "view",
      "type": "function"
    },
    {
      "inputs": [
        {
          "internalType": "string",
          "name": "tokenURI",
          "type": "string"
        },
        {
          "internalType": "uint256",
          "name": "price",
          "type": "uint256"
        }
      ],
      "name": "createToken",
      "outputs": [
        {
          "internalType": "uint256",
          "name": "",
          "type": "uint256"
        }
      ],
      "stateMutability": "payable",
      "type": "function"
    },
    {
      "inputs": [
        {
          "internalType": "uint256",
          "name": "",
          "type": "uint256"
        }
      ],
      "name": "dateMinted",
      "outputs": [
        {
          "internalType": "uint256",
          "name": "",
          "type": "uint256"
        }
      ],
      "stateMutability": "view",
      "type": "function"
    },
    {
      "inputs": [
        {
          "internalType": "uint256",
          "name": "tokenId",
          "type": "uint256"
        }
      ],
      "name": "delistToken",
      "outputs": [],
      "stateMutability": "nonpayable",
      "type": "function"
    },
    {
      "inputs": [
        {
          "internalType": "uint256",
          "name": "tokenId",
          "type": "uint256"
        }
      ],
      "name": "executeSale",
      "outputs": [],
      "stateMutability": "payable",
      "type": "function"
    },
    {
      "inputs": [],
      "name": "getAllNFTs",
      "outputs": [
        {
          "components": [
            {
              "internalType": "uint256",
              "name": "tokenId",
              "type": "uint256"
            },
            {
              "internalType": "address payable",
              "name": "owner",
              "type": "address"
            },
            {
              "internalType": "address payable",
              "name": "seller",
              "type": "address"
            },
            {
              "internalType": "uint256",
              "name": "price",
              "type": "uint256"
            },
            {
              "internalType": "bool",
              "name": "currentlyListed",
              "type": "bool"
            }
          ],
          "internalType": "struct NFTMarketplace.ListedToken[]",
          "name": "",
          "type": "tuple[]"
        }
      ],
      "stateMutability": "view",
      "type": "function"
    },
    {
      "inputs": [
        {
          "internalType": "uint256",
          "name": "tokenId",
          "type": "uint256"
        }
      ],
      "name": "getApproved",
      "outputs": [
        {
          "internalType": "address",
          "name": "",
          "type": "address"
        }
      ],
      "stateMutability": "view",
      "type": "function"
    },
    {
      "inputs": [],
      "name": "getCurrentToken",
      "outputs": [
        {
          "internalType": "uint256",
          "name": "",
          "type": "uint256"
        }
      ],
      "stateMutability": "view",
      "type": "function"
    },
    {
      "inputs": [],
      "name": "getLatestIdToListedToken",
      "outputs": [
        {
          "components": [
            {
              "internalType": "uint256",
              "name": "tokenId",
              "type": "uint256"
            },
            {
              "internalType": "address payable",
              "name": "owner",
              "type": "address"
            },
            {
              "internalType": "address payable",
              "name": "seller",
              "type": "address"
            },
            {
              "internalType": "uint256",
              "name": "price",
              "type": "uint256"
            },
            {
              "internalType": "bool",
              "name": "currentlyListed",
              "type": "bool"
            }
          ],
          "internalType": "struct NFTMarketplace.ListedToken",
          "name": "",
          "type": "tuple"
        }
      ],
      "stateMutability": "view",
      "type": "function"
    },
    {
      "inputs": [],
      "name": "getListPrice",
      "outputs": [
        {
          "internalType": "uint256",
          "name": "",
          "type": "uint256"
        }
      ],
      "stateMutability": "view",
      "type": "function"
    },
    {
      "inputs": [
        {
          "internalType": "uint256",
          "name": "tokenId",
          "type": "uint256"
        }
      ],
      "name": "getListedTokenForId",
      "outputs": [
        {
          "components": [
            {
              "internalType": "uint256",
              "name": "tokenId",
              "type": "uint256"
            },
            {
              "internalType": "address payable",
              "name": "owner",
              "type": "address"
            },
            {
              "internalType": "address payable",
              "name": "seller",
              "type": "address"
            },
            {
              "internalType": "uint256",
              "name": "price",
              "type": "uint256"
            },
            {
              "internalType": "bool",
              "name": "currentlyListed",
              "type": "bool"
            }
          ],
          "internalType": "struct NFTMarketplace.ListedToken",
          "name": "",
          "type": "tuple"
        }
      ],
      "stateMutability": "view",
      "type": "function"
    },
    {
      "inputs": [],
      "name": "getMyNFTs",
      "outputs": [
        {
          "components": [
            {
              "internalType": "uint256",
              "name": "tokenId",
              "type": "uint256"
            },
            {
              "internalType": "address payable",
              "name": "owner",
              "type": "address"
            },
            {
              "internalType": "address payable",
              "name": "seller",
              "type": "address"
            },
            {
              "internalType": "uint256",
              "name": "price",
              "type": "uint256"
            },
            {
              "internalType": "bool",
              "name": "currentlyListed",
              "type": "bool"
            }
          ],
          "internalType": "struct NFTMarketplace.ListedToken[]",
          "name": "",
          "type": "tuple[]"
        }
      ],
      "stateMutability": "view",
      "type": "function"
    },
    {
      "inputs": [
        {
          "internalType": "address",
          "name": "owner",
          "type": "address"
        },
        {
          "internalType": "address",
          "name": "operator",
          "type": "address"
        }
      ],
      "name": "isApprovedForAll",
      "outputs": [
        {
          "internalType": "bool",
          "name": "",
          "type": "bool"
        }
      ],
      "stateMutability": "view",
      "type": "function"
    },
    {
      "inputs": [
        {
          "internalType": "address",
          "name": "",
          "type": "address"
        }
      ],
      "name": "lastMint",
      "outputs": [
        {
          "internalType": "uint256",
          "name": "",
          "type": "uint256"
        }
      ],
      "stateMutability": "view",
      "type": "function"
    },
    {
      "inputs": [],
      "name": "name",
      "outputs": [
        {
          "internalType": "string",
          "name": "",
          "type": "string"
        }
      ],
      "stateMutability": "view",
      "type": "function"
    },
    {
      "inputs": [
        {
          "internalType": "uint256",
          "name": "tokenId",
          "type": "uint256"
        }
      ],
      "name": "ownerOf",
      "outputs": [
        {
          "internalType": "address",
          "name": "",
          "type": "address"
        }
      ],
      "stateMutability": "view",
      "type": "function"
    },
    {
      "inputs": [
        {
          "internalType": "address",
          "name": "from",
          "type": "address"
        },
        {
          "internalType": "address",
          "name": "to",
          "type": "address"
        },
        {
          "internalType": "uint256",
          "name": "tokenId",
          "type": "uint256"
        }
      ],
      "name": "safeTransferFrom",
      "outputs": [],
      "stateMutability": "nonpayable",
      "type": "function"
    },
    {
      "inputs": [
        {
          "internalType": "address",
          "name": "from",
          "type": "address"
        },
        {
          "internalType": "address",
          "name": "to",
          "type": "address"
        },
        {
          "internalType": "uint256",
          "name": "tokenId",
          "type": "uint256"
        },
        {
          "internalType": "bytes",
          "name": "data",
          "type": "bytes"
        }
      ],
      "name": "safeTransferFrom",
      "outputs": [],
      "stateMutability": "nonpayable",
      "type": "function"
    },
    {
      "inputs": [
        {
          "internalType": "address",
          "name": "operator",
          "type": "address"
        },
        {
          "internalType": "bool",
          "name": "approved",
          "type": "bool"
        }
      ],
      "name": "setApprovalForAll",
      "outputs": [],
      "stateMutability": "nonpayable",
      "type": "function"
    },
    {
      "inputs": [
        {
          "internalType": "bytes4",
          "name": "interfaceId",
          "type": "bytes4"
        }
      ],
      "name": "supportsInterface",
      "outputs": [
        {
          "internalType": "bool",
          "name": "",
          "type": "bool"
        }
      ],
      "stateMutability": "view",
      "type": "function"
    },
    {
      "inputs": [],
      "name": "symbol",
      "outputs": [
        {
          "internalType": "string",
          "name": "",
          "type": "string"
        }
      ],
      "stateMutability": "view",
      "type": "function"
    },
    {
      "inputs": [
        {
          "internalType": "uint256",
          "name": "tokenId",
          "type": "uint256"
        }
      ],
      "name": "tokenURI",
      "outputs": [
        {
          "internalType": "string",
          "name": "",
          "type": "string"
        }
      ],
      "stateMutability": "view",
      "type": "function"
    },
    {
      "inputs": [
        {
          "internalType": "address",
          "name": "from",
          "type": "address"
        },
        {
          "internalType": "address",
          "name": "to",
          "type": "address"
        },
        {
          "internalType": "uint256",
          "name": "tokenId",
          "type": "uint256"
        }
      ],
      "name": "transferFrom",
      "outputs": [],
      "stateMutability": "nonpayable",
      "type": "function"
    },
    {
      "inputs": [
        {
          "internalType": "uint256",
          "name": "_listPrice",
          "type": "uint256"
        }
      ],
      "name": "updateListPrice",
      "outputs": [],
      "stateMutability": "payable",
      "type": "function"
    },
    {
      "inputs": [
        {
          "internalType": "uint256",
          "name": "tokenId",
          "type": "uint256"
        },
        {
          "internalType": "uint256",
          "name": "price2",
          "type": "uint256"
        }
      ],
      "name": "updatePrice",
      "outputs": [],
      "stateMutability": "nonpayable",
      "type": "function"
    }
  ],
  "bytecode": "0x6080604052662386f26fc10000600a553480156200001c57600080fd5b506040518060400160405280601281526020017f4e4654436172644d61726b6574706c61636500000000000000000000000000008152506040518060400160405280600481526020017f43415244000000000000000000000000000000000000000000000000000000008152508160009080519060200190620000a192919062000104565b508060019080519060200190620000ba92919062000104565b50505033600960006101000a81548173ffffffffffffffffffffffffffffffffffffffff021916908373ffffffffffffffffffffffffffffffffffffffff16021790555062000219565b8280546200011290620001e3565b90600052602060002090601f01602090048101928262000136576000855562000182565b82601f106200015157805160ff191683800117855562000182565b8280016001018555821562000182579182015b828111156200018157825182559160200191906001019062000164565b5b50905062000191919062000195565b5090565b5b80821115620001b057600081600090555060010162000196565b5090565b7f4e487b7100000000000000000000000000000000000000000000000000000000600052602260045260246000fd5b60006002820490506001821680620001fc57607f821691505b60208210811415620002135762000212620001b4565b5b50919050565b6144b780620002296000396000f3fe6080604052600436106101815760003560e01c806395d89b41116100d1578063c322579c1161008a578063e0391b0911610064578063e0391b091461058f578063e985e9c5146105ba578063ef2d1746146105f7578063fa6e913a1461062257610181565b8063c322579c1461050b578063c87b56dd14610527578063d1a88ae51461056457610181565b806395d89b411461040c5780639b1225c414610437578063a22cb46514610453578063adc20b1c1461047c578063b88d4fde146104b9578063bed659bc146104e257610181565b8063629cb2e41161013e57806370a082311161011857806370a082311461033957806372b3b6201461037657806382367b2d146103a65780638e264590146103cf57610181565b8063629cb2e4146102a65780636352211e146102d157806368f1945f1461030e57610181565b806301ffc9a71461018657806306fdde03146101c3578063081812fc146101ee578063095ea7b31461022b57806323b872dd1461025457806342842e0e1461027d575b600080fd5b34801561019257600080fd5b506101ad60048036038101906101a89190612d7d565b61065f565b6040516101ba9190612dc5565b60405180910390f35b3480156101cf57600080fd5b506101d8610741565b6040516101e59190612e79565b60405180910390f35b3480156101fa57600080fd5b5061021560048036038101906102109190612ed1565b6107d3565b6040516102229190612f3f565b60405180910390f35b34801561023757600080fd5b50610252600480360381019061024d9190612f86565b610819565b005b34801561026057600080fd5b5061027b60048036038101906102769190612fc6565b610931565b005b34801561028957600080fd5b506102a4600480360381019061029f9190612fc6565b610991565b005b3480156102b257600080fd5b506102bb6109b1565b6040516102c8919061316f565b60405180910390f35b3480156102dd57600080fd5b506102f860048036038101906102f39190612ed1565b610d92565b6040516103059190612f3f565b60405180910390f35b34801561031a57600080fd5b50610323610e44565b60405161033091906131a0565b60405180910390f35b34801561034557600080fd5b50610360600480360381019061035b91906131bb565b610e4e565b60405161036d91906131a0565b60405180910390f35b610390600480360381019061038b919061331d565b610f06565b60405161039d91906131a0565b60405180910390f35b3480156103b257600080fd5b506103cd60048036038101906103c89190613379565b611032565b005b3480156103db57600080fd5b506103f660048036038101906103f19190612ed1565b6110f5565b6040516104039190613421565b60405180910390f35b34801561041857600080fd5b506104216111fd565b60405161042e9190612e79565b60405180910390f35b610451600480360381019061044c9190612ed1565b61128f565b005b34801561045f57600080fd5b5061047a60048036038101906104759190613468565b611526565b005b34801561048857600080fd5b506104a3600480360381019061049e91906131bb565b61153c565b6040516104b091906131a0565b60405180910390f35b3480156104c557600080fd5b506104e060048036038101906104db9190613549565b611554565b005b3480156104ee57600080fd5b5061050960048036038101906105049190612ed1565b6115b6565b005b61052560048036038101906105209190612ed1565b611756565b005b34801561053357600080fd5b5061054e60048036038101906105499190612ed1565b6117f0565b60405161055b9190612e79565b60405180910390f35b34801561057057600080fd5b50610579611903565b6040516105869190613421565b60405180910390f35b34801561059b57600080fd5b506105a4611a18565b6040516105b1919061316f565b60405180910390f35b3480156105c657600080fd5b506105e160048036038101906105dc91906135cc565b611c1b565b6040516105ee9190612dc5565b60405180910390f35b34801561060357600080fd5b5061060c611caf565b60405161061991906131a0565b60405180910390f35b34801561062e57600080fd5b5061064960048036038101906106449190612ed1565b611cc0565b60405161065691906131a0565b60405180910390f35b60007f80ac58cd000000000000000000000000000000000000000000000000000000007bffffffffffffffffffffffffffffffffffffffffffffffffffffffff1916827bffffffffffffffffffffffffffffffffffffffffffffffffffffffff1916148061072a57507f5b5e139f000000000000000000000000000000000000000000000000000000007bffffffffffffffffffffffffffffffffffffffffffffffffffffffff1916827bffffffffffffffffffffffffffffffffffffffffffffffffffffffff1916145b8061073a575061073982611cd8565b5b9050919050565b6060600080546107509061363b565b80601f016020809104026020016040519081016040528092919081815260200182805461077c9061363b565b80156107c95780601f1061079e576101008083540402835291602001916107c9565b820191906000526020600020905b8154815290600101906020018083116107ac57829003601f168201915b5050505050905090565b60006107de82611d42565b6004600083815260200190815260200160002060009054906101000a900473ffffffffffffffffffffffffffffffffffffffff169050919050565b600061082482610d92565b90508073ffffffffffffffffffffffffffffffffffffffff168373ffffffffffffffffffffffffffffffffffffffff161415610895576040517f08c379a000000000000000000000000000000000000000000000000000000000815260040161088c906136df565b60405180910390fd5b8073ffffffffffffffffffffffffffffffffffffffff166108b4611d8d565b73ffffffffffffffffffffffffffffffffffffffff1614806108e357506108e2816108dd611d8d565b611c1b565b5b610922576040517f08c379a000000000000000000000000000000000000000000000000000000000815260040161091990613771565b60405180910390fd5b61092c8383611d95565b505050565b61094261093c611d8d565b82611e4e565b610981576040517f08c379a000000000000000000000000000000000000000000000000000000000815260040161097890613803565b60405180910390fd5b61098c838383611ee3565b505050565b6109ac83838360405180602001604052806000815250611554565b505050565b606060006109bf600761214a565b9050600080600080600090505b84811015610ae5573373ffffffffffffffffffffffffffffffffffffffff16600b60006001846109fc9190613852565b815260200190815260200160002060010160009054906101000a900473ffffffffffffffffffffffffffffffffffffffff1673ffffffffffffffffffffffffffffffffffffffff161480610abd57503373ffffffffffffffffffffffffffffffffffffffff16600b6000600184610a739190613852565b815260200190815260200160002060020160009054906101000a900473ffffffffffffffffffffffffffffffffffffffff1673ffffffffffffffffffffffffffffffffffffffff16145b15610ad257600184610acf9190613852565b93505b8080610add906138a8565b9150506109cc565b5060008367ffffffffffffffff811115610b0257610b016131f2565b5b604051908082528060200260200182016040528015610b3b57816020015b610b28612c11565b815260200190600190039081610b205790505b50905060005b85811015610d86573373ffffffffffffffffffffffffffffffffffffffff16600b6000600184610b719190613852565b815260200190815260200160002060010160009054906101000a900473ffffffffffffffffffffffffffffffffffffffff1673ffffffffffffffffffffffffffffffffffffffff161480610c3257503373ffffffffffffffffffffffffffffffffffffffff16600b6000600184610be89190613852565b815260200190815260200160002060020160009054906101000a900473ffffffffffffffffffffffffffffffffffffffff1673ffffffffffffffffffffffffffffffffffffffff16145b15610d7357600181610c449190613852565b92506000600b60008581526020019081526020016000209050806040518060a0016040529081600082015481526020016001820160009054906101000a900473ffffffffffffffffffffffffffffffffffffffff1673ffffffffffffffffffffffffffffffffffffffff1673ffffffffffffffffffffffffffffffffffffffff1681526020016002820160009054906101000a900473ffffffffffffffffffffffffffffffffffffffff1673ffffffffffffffffffffffffffffffffffffffff1673ffffffffffffffffffffffffffffffffffffffff168152602001600382015481526020016004820160009054906101000a900460ff161515151581525050838681518110610d5757610d566138f1565b5b6020026020010181905250600185610d6f9190613852565b9450505b8080610d7e906138a8565b915050610b41565b50809550505050505090565b6000806002600084815260200190815260200160002060009054906101000a900473ffffffffffffffffffffffffffffffffffffffff169050600073ffffffffffffffffffffffffffffffffffffffff168173ffffffffffffffffffffffffffffffffffffffff161415610e3b576040517f08c379a0000000000000000000000000000000000000000000000000000000008152600401610e329061396c565b60405180910390fd5b80915050919050565b6000600a54905090565b60008073ffffffffffffffffffffffffffffffffffffffff168273ffffffffffffffffffffffffffffffffffffffff161415610ebf576040517f08c379a0000000000000000000000000000000000000000000000000000000008152600401610eb6906139fe565b60405180910390fd5b600360008373ffffffffffffffffffffffffffffffffffffffff1673ffffffffffffffffffffffffffffffffffffffff168152602001908152602001600020549050919050565b60006014600d60003373ffffffffffffffffffffffffffffffffffffffff1673ffffffffffffffffffffffffffffffffffffffff1681526020019081526020016000205442610f559190613a1e565b1015610f96576040517f08c379a0000000000000000000000000000000000000000000000000000000008152600401610f8d90613ac4565b60405180910390fd5b42600d60003373ffffffffffffffffffffffffffffffffffffffff1673ffffffffffffffffffffffffffffffffffffffff16815260200190815260200160002081905550610fe46007612158565b6000610ff0600761214a565b9050610ffc338261216e565b42600c60008381526020019081526020016000208190555061101e818561218c565b6110288184612200565b8091505092915050565b3373ffffffffffffffffffffffffffffffffffffffff16600b600084815260200190815260200160002060020160009054906101000a900473ffffffffffffffffffffffffffffffffffffffff1673ffffffffffffffffffffffffffffffffffffffff16146110d6576040517f08c379a00000000000000000000000000000000000000000000000000000000081526004016110cd90613b30565b60405180910390fd5b80600b6000848152602001908152602001600020600301819055505050565b6110fd612c11565b600b60008381526020019081526020016000206040518060a0016040529081600082015481526020016001820160009054906101000a900473ffffffffffffffffffffffffffffffffffffffff1673ffffffffffffffffffffffffffffffffffffffff1673ffffffffffffffffffffffffffffffffffffffff1681526020016002820160009054906101000a900473ffffffffffffffffffffffffffffffffffffffff1673ffffffffffffffffffffffffffffffffffffffff1673ffffffffffffffffffffffffffffffffffffffff168152602001600382015481526020016004820160009054906101000a900460ff1615151515815250509050919050565b60606001805461120c9061363b565b80601f01602080910402602001604051908101604052809291908181526020018280546112389061363b565b80156112855780601f1061125a57610100808354040283529160200191611285565b820191906000526020600020905b81548152906001019060200180831161126857829003601f168201915b5050505050905090565b6000600b60008381526020019081526020016000206003015490506000600b600084815260200190815260200160002060020160009054906101000a900473ffffffffffffffffffffffffffffffffffffffff169050813414611327576040517f08c379a000000000000000000000000000000000000000000000000000000000815260040161131e90613bc2565b60405180910390fd5b3373ffffffffffffffffffffffffffffffffffffffff16600b600085815260200190815260200160002060020160009054906101000a900473ffffffffffffffffffffffffffffffffffffffff1673ffffffffffffffffffffffffffffffffffffffff1614156113cc576040517f08c379a00000000000000000000000000000000000000000000000000000000081526004016113c390613c2e565b60405180910390fd5b6001600b600085815260200190815260200160002060040160006101000a81548160ff02191690831515021790555033600b600085815260200190815260200160002060020160006101000a81548173ffffffffffffffffffffffffffffffffffffffff021916908373ffffffffffffffffffffffffffffffffffffffff16021790555061145a6008612158565b611465303385611ee3565b61146f3084610819565b600960009054906101000a900473ffffffffffffffffffffffffffffffffffffffff1673ffffffffffffffffffffffffffffffffffffffff166108fc600a549081150290604051600060405180830381858888f193505050501580156114d9573d6000803e3d6000fd5b508073ffffffffffffffffffffffffffffffffffffffff166108fc349081150290604051600060405180830381858888f19350505050158015611520573d6000803e3d6000fd5b50505050565b611538611531611d8d565b8383612403565b5050565b600d6020528060005260406000206000915090505481565b61156561155f611d8d565b83611e4e565b6115a4576040517f08c379a000000000000000000000000000000000000000000000000000000000815260040161159b90613803565b60405180910390fd5b6115b084848484612570565b50505050565b3373ffffffffffffffffffffffffffffffffffffffff16600b600083815260200190815260200160002060020160009054906101000a900473ffffffffffffffffffffffffffffffffffffffff1673ffffffffffffffffffffffffffffffffffffffff161461165a576040517f08c379a000000000000000000000000000000000000000000000000000000000815260040161165190613c9a565b60405180910390fd5b60011515600b600083815260200190815260200160002060040160009054906101000a900460ff161515146116c4576040517f08c379a00000000000000000000000000000000000000000000000000000000081526004016116bb90613d06565b60405180910390fd5b6000600b600083815260200190815260200160002060040160006101000a81548160ff02191690831515021790555033600b600083815260200190815260200160002060010160006101000a81548173ffffffffffffffffffffffffffffffffffffffff021916908373ffffffffffffffffffffffffffffffffffffffff160217905550611753303383611ee3565b50565b3373ffffffffffffffffffffffffffffffffffffffff16600960009054906101000a900473ffffffffffffffffffffffffffffffffffffffff1673ffffffffffffffffffffffffffffffffffffffff16146117e6576040517f08c379a00000000000000000000000000000000000000000000000000000000081526004016117dd90613d98565b60405180910390fd5b80600a8190555050565b60606117fb82611d42565b600060066000848152602001908152602001600020805461181b9061363b565b80601f01602080910402602001604051908101604052809291908181526020018280546118479061363b565b80156118945780601f1061186957610100808354040283529160200191611894565b820191906000526020600020905b81548152906001019060200180831161187757829003601f168201915b5050505050905060006118a56125cc565b90506000815114156118bb5781925050506118fe565b6000825111156118f05780826040516020016118d8929190613df4565b604051602081830303815290604052925050506118fe565b6118f9846125e3565b925050505b919050565b61190b612c11565b6000611917600761214a565b9050600b60008281526020019081526020016000206040518060a0016040529081600082015481526020016001820160009054906101000a900473ffffffffffffffffffffffffffffffffffffffff1673ffffffffffffffffffffffffffffffffffffffff1673ffffffffffffffffffffffffffffffffffffffff1681526020016002820160009054906101000a900473ffffffffffffffffffffffffffffffffffffffff1673ffffffffffffffffffffffffffffffffffffffff1673ffffffffffffffffffffffffffffffffffffffff168152602001600382015481526020016004820160009054906101000a900460ff16151515158152505091505090565b60606000611a26600761214a565b905060008167ffffffffffffffff811115611a4457611a436131f2565b5b604051908082528060200260200182016040528015611a7d57816020015b611a6a612c11565b815260200190600190039081611a625790505b50905060008080600090505b84811015611c1057600181611a9e9190613852565b915060011515600b600084815260200190815260200160002060040160009054906101000a900460ff1615151415611bfd576000600b60008481526020019081526020016000209050806040518060a0016040529081600082015481526020016001820160009054906101000a900473ffffffffffffffffffffffffffffffffffffffff1673ffffffffffffffffffffffffffffffffffffffff1673ffffffffffffffffffffffffffffffffffffffff1681526020016002820160009054906101000a900473ffffffffffffffffffffffffffffffffffffffff1673ffffffffffffffffffffffffffffffffffffffff1673ffffffffffffffffffffffffffffffffffffffff168152602001600382015481526020016004820160009054906101000a900460ff161515151581525050858581518110611be157611be06138f1565b5b6020026020010181905250600184611bf99190613852565b9350505b8080611c08906138a8565b915050611a89565b508294505050505090565b6000600560008473ffffffffffffffffffffffffffffffffffffffff1673ffffffffffffffffffffffffffffffffffffffff16815260200190815260200160002060008373ffffffffffffffffffffffffffffffffffffffff1673ffffffffffffffffffffffffffffffffffffffff16815260200190815260200160002060009054906101000a900460ff16905092915050565b6000611cbb600761214a565b905090565b600c6020528060005260406000206000915090505481565b60007f01ffc9a7000000000000000000000000000000000000000000000000000000007bffffffffffffffffffffffffffffffffffffffffffffffffffffffff1916827bffffffffffffffffffffffffffffffffffffffffffffffffffffffff1916149050919050565b611d4b8161264b565b611d8a576040517f08c379a0000000000000000000000000000000000000000000000000000000008152600401611d819061396c565b60405180910390fd5b50565b600033905090565b816004600083815260200190815260200160002060006101000a81548173ffffffffffffffffffffffffffffffffffffffff021916908373ffffffffffffffffffffffffffffffffffffffff160217905550808273ffffffffffffffffffffffffffffffffffffffff16611e0883610d92565b73ffffffffffffffffffffffffffffffffffffffff167f8c5be1e5ebec7d5bd14f71427d1e84f3dd0314c0f7b2291e5b200ac8c7c3b92560405160405180910390a45050565b600080611e5a83610d92565b90508073ffffffffffffffffffffffffffffffffffffffff168473ffffffffffffffffffffffffffffffffffffffff161480611e9c5750611e9b8185611c1b565b5b80611eda57508373ffffffffffffffffffffffffffffffffffffffff16611ec2846107d3565b73ffffffffffffffffffffffffffffffffffffffff16145b91505092915050565b8273ffffffffffffffffffffffffffffffffffffffff16611f0382610d92565b73ffffffffffffffffffffffffffffffffffffffff1614611f59576040517f08c379a0000000000000000000000000000000000000000000000000000000008152600401611f5090613e8a565b60405180910390fd5b600073ffffffffffffffffffffffffffffffffffffffff168273ffffffffffffffffffffffffffffffffffffffff161415611fc9576040517f08c379a0000000000000000000000000000000000000000000000000000000008152600401611fc090613f1c565b60405180910390fd5b611fd48383836126b7565b611fdf600082611d95565b6001600360008573ffffffffffffffffffffffffffffffffffffffff1673ffffffffffffffffffffffffffffffffffffffff168152602001908152602001600020600082825461202f9190613a1e565b925050819055506001600360008473ffffffffffffffffffffffffffffffffffffffff1673ffffffffffffffffffffffffffffffffffffffff16815260200190815260200160002060008282546120869190613852565b92505081905550816002600083815260200190815260200160002060006101000a81548173ffffffffffffffffffffffffffffffffffffffff021916908373ffffffffffffffffffffffffffffffffffffffff160217905550808273ffffffffffffffffffffffffffffffffffffffff168473ffffffffffffffffffffffffffffffffffffffff167fddf252ad1be2c89b69c2b068fc378daa952ba7f163c4a11628f55a4df523b3ef60405160405180910390a46121458383836126bc565b505050565b600081600001549050919050565b6001816000016000828254019250508190555050565b6121888282604051806020016040528060008152506126c1565b5050565b6121958261264b565b6121d4576040517f08c379a00000000000000000000000000000000000000000000000000000000081526004016121cb90613fae565b60405180910390fd5b806006600084815260200190815260200160002090805190602001906121fb929190612c6e565b505050565b600a543414612244576040517f08c379a000000000000000000000000000000000000000000000000000000000815260040161223b90614040565b60405180910390fd5b60008111612287576040517f08c379a000000000000000000000000000000000000000000000000000000000815260040161227e906140d2565b60405180910390fd5b6040518060a001604052808381526020013073ffffffffffffffffffffffffffffffffffffffff1681526020013373ffffffffffffffffffffffffffffffffffffffff16815260200182815260200160011515815250600b60008481526020019081526020016000206000820151816000015560208201518160010160006101000a81548173ffffffffffffffffffffffffffffffffffffffff021916908373ffffffffffffffffffffffffffffffffffffffff16021790555060408201518160020160006101000a81548173ffffffffffffffffffffffffffffffffffffffff021916908373ffffffffffffffffffffffffffffffffffffffff1602179055506060820151816003015560808201518160040160006101000a81548160ff0219169083151502179055509050506123c0333084611ee3565b817f9339409317fd01fabff48b703019016f49159bacc801ae872d2ca637d226e4c030338460016040516123f794939291906140f2565b60405180910390a25050565b8173ffffffffffffffffffffffffffffffffffffffff168373ffffffffffffffffffffffffffffffffffffffff161415612472576040517f08c379a000000000000000000000000000000000000000000000000000000000815260040161246990614183565b60405180910390fd5b80600560008573ffffffffffffffffffffffffffffffffffffffff1673ffffffffffffffffffffffffffffffffffffffff16815260200190815260200160002060008473ffffffffffffffffffffffffffffffffffffffff1673ffffffffffffffffffffffffffffffffffffffff16815260200190815260200160002060006101000a81548160ff0219169083151502179055508173ffffffffffffffffffffffffffffffffffffffff168373ffffffffffffffffffffffffffffffffffffffff167f17307eab39ab6107e8899845ad3d59bd9653f200f220920489ca2b5937696c31836040516125639190612dc5565b60405180910390a3505050565b61257b848484611ee3565b6125878484848461271c565b6125c6576040517f08c379a00000000000000000000000000000000000000000000000000000000081526004016125bd90614215565b60405180910390fd5b50505050565b606060405180602001604052806000815250905090565b60606125ee82611d42565b60006125f86125cc565b905060008151116126185760405180602001604052806000815250612643565b80612622846128b3565b604051602001612633929190613df4565b6040516020818303038152906040525b915050919050565b60008073ffffffffffffffffffffffffffffffffffffffff166002600084815260200190815260200160002060009054906101000a900473ffffffffffffffffffffffffffffffffffffffff1673ffffffffffffffffffffffffffffffffffffffff1614159050919050565b505050565b505050565b6126cb8383612a14565b6126d8600084848461271c565b612717576040517f08c379a000000000000000000000000000000000000000000000000000000000815260040161270e90614215565b60405180910390fd5b505050565b600061273d8473ffffffffffffffffffffffffffffffffffffffff16612bee565b156128a6578373ffffffffffffffffffffffffffffffffffffffff1663150b7a02612766611d8d565b8786866040518563ffffffff1660e01b8152600401612788949392919061428a565b602060405180830381600087803b1580156127a257600080fd5b505af19250505080156127d357506040513d601f19601f820116820180604052508101906127d091906142eb565b60015b612856573d8060008114612803576040519150601f19603f3d011682016040523d82523d6000602084013e612808565b606091505b5060008151141561284e576040517f08c379a000000000000000000000000000000000000000000000000000000000815260040161284590614215565b60405180910390fd5b805181602001fd5b63150b7a0260e01b7bffffffffffffffffffffffffffffffffffffffffffffffffffffffff1916817bffffffffffffffffffffffffffffffffffffffffffffffffffffffff1916149150506128ab565b600190505b949350505050565b606060008214156128fb576040518060400160405280600181526020017f30000000000000000000000000000000000000000000000000000000000000008152509050612a0f565b600082905060005b6000821461292d578080612916906138a8565b915050600a826129269190614347565b9150612903565b60008167ffffffffffffffff811115612949576129486131f2565b5b6040519080825280601f01601f19166020018201604052801561297b5781602001600182028036833780820191505090505b5090505b60008514612a08576001826129949190613a1e565b9150600a856129a39190614378565b60306129af9190613852565b60f81b8183815181106129c5576129c46138f1565b5b60200101907effffffffffffffffffffffffffffffffffffffffffffffffffffffffffffff1916908160001a905350600a85612a019190614347565b945061297f565b8093505050505b919050565b600073ffffffffffffffffffffffffffffffffffffffff168273ffffffffffffffffffffffffffffffffffffffff161415612a84576040517f08c379a0000000000000000000000000000000000000000000000000000000008152600401612a7b906143f5565b60405180910390fd5b612a8d8161264b565b15612acd576040517f08c379a0000000000000000000000000000000000000000000000000000000008152600401612ac490614461565b60405180910390fd5b612ad9600083836126b7565b6001600360008473ffffffffffffffffffffffffffffffffffffffff1673ffffffffffffffffffffffffffffffffffffffff1681526020019081526020016000206000828254612b299190613852565b92505081905550816002600083815260200190815260200160002060006101000a81548173ffffffffffffffffffffffffffffffffffffffff021916908373ffffffffffffffffffffffffffffffffffffffff160217905550808273ffffffffffffffffffffffffffffffffffffffff16600073ffffffffffffffffffffffffffffffffffffffff167fddf252ad1be2c89b69c2b068fc378daa952ba7f163c4a11628f55a4df523b3ef60405160405180910390a4612bea600083836126bc565b5050565b6000808273ffffffffffffffffffffffffffffffffffffffff163b119050919050565b6040518060a0016040528060008152602001600073ffffffffffffffffffffffffffffffffffffffff168152602001600073ffffffffffffffffffffffffffffffffffffffff168152602001600081526020016000151581525090565b828054612c7a9061363b565b90600052602060002090601f016020900481019282612c9c5760008555612ce3565b82601f10612cb557805160ff1916838001178555612ce3565b82800160010185558215612ce3579182015b82811115612ce2578251825591602001919060010190612cc7565b5b509050612cf09190612cf4565b5090565b5b80821115612d0d576000816000905550600101612cf5565b5090565b6000604051905090565b600080fd5b600080fd5b60007fffffffff0000000000000000000000000000000000000000000000000000000082169050919050565b612d5a81612d25565b8114612d6557600080fd5b50565b600081359050612d7781612d51565b92915050565b600060208284031215612d9357612d92612d1b565b5b6000612da184828501612d68565b91505092915050565b60008115159050919050565b612dbf81612daa565b82525050565b6000602082019050612dda6000830184612db6565b92915050565b600081519050919050565b600082825260208201905092915050565b60005b83811015612e1a578082015181840152602081019050612dff565b83811115612e29576000848401525b50505050565b6000601f19601f8301169050919050565b6000612e4b82612de0565b612e558185612deb565b9350612e65818560208601612dfc565b612e6e81612e2f565b840191505092915050565b60006020820190508181036000830152612e938184612e40565b905092915050565b6000819050919050565b612eae81612e9b565b8114612eb957600080fd5b50565b600081359050612ecb81612ea5565b92915050565b600060208284031215612ee757612ee6612d1b565b5b6000612ef584828501612ebc565b91505092915050565b600073ffffffffffffffffffffffffffffffffffffffff82169050919050565b6000612f2982612efe565b9050919050565b612f3981612f1e565b82525050565b6000602082019050612f546000830184612f30565b92915050565b612f6381612f1e565b8114612f6e57600080fd5b50565b600081359050612f8081612f5a565b92915050565b60008060408385031215612f9d57612f9c612d1b565b5b6000612fab85828601612f71565b9250506020612fbc85828601612ebc565b9150509250929050565b600080600060608486031215612fdf57612fde612d1b565b5b6000612fed86828701612f71565b9350506020612ffe86828701612f71565b925050604061300f86828701612ebc565b9150509250925092565b600081519050919050565b600082825260208201905092915050565b6000819050602082019050919050565b61304e81612e9b565b82525050565b600061305f82612efe565b9050919050565b61306f81613054565b82525050565b61307e81612daa565b82525050565b60a08201600082015161309a6000850182613045565b5060208201516130ad6020850182613066565b5060408201516130c06040850182613066565b5060608201516130d36060850182613045565b5060808201516130e66080850182613075565b50505050565b60006130f88383613084565b60a08301905092915050565b6000602082019050919050565b600061311c82613019565b6131268185613024565b935061313183613035565b8060005b8381101561316257815161314988826130ec565b975061315483613104565b925050600181019050613135565b5085935050505092915050565b600060208201905081810360008301526131898184613111565b905092915050565b61319a81612e9b565b82525050565b60006020820190506131b56000830184613191565b92915050565b6000602082840312156131d1576131d0612d1b565b5b60006131df84828501612f71565b91505092915050565b600080fd5b600080fd5b7f4e487b7100000000000000000000000000000000000000000000000000000000600052604160045260246000fd5b61322a82612e2f565b810181811067ffffffffffffffff82111715613249576132486131f2565b5b80604052505050565b600061325c612d11565b90506132688282613221565b919050565b600067ffffffffffffffff821115613288576132876131f2565b5b61329182612e2f565b9050602081019050919050565b82818337600083830152505050565b60006132c06132bb8461326d565b613252565b9050828152602081018484840111156132dc576132db6131ed565b5b6132e784828561329e565b509392505050565b600082601f830112613304576133036131e8565b5b81356133148482602086016132ad565b91505092915050565b6000806040838503121561333457613333612d1b565b5b600083013567ffffffffffffffff81111561335257613351612d20565b5b61335e858286016132ef565b925050602061336f85828601612ebc565b9150509250929050565b600080604083850312156133905761338f612d1b565b5b600061339e85828601612ebc565b92505060206133af85828601612ebc565b9150509250929050565b60a0820160008201516133cf6000850182613045565b5060208201516133e26020850182613066565b5060408201516133f56040850182613066565b5060608201516134086060850182613045565b50608082015161341b6080850182613075565b50505050565b600060a08201905061343660008301846133b9565b92915050565b61344581612daa565b811461345057600080fd5b50565b6000813590506134628161343c565b92915050565b6000806040838503121561347f5761347e612d1b565b5b600061348d85828601612f71565b925050602061349e85828601613453565b9150509250929050565b600067ffffffffffffffff8211156134c3576134c26131f2565b5b6134cc82612e2f565b9050602081019050919050565b60006134ec6134e7846134a8565b613252565b905082815260208101848484011115613508576135076131ed565b5b61351384828561329e565b509392505050565b600082601f8301126135305761352f6131e8565b5b81356135408482602086016134d9565b91505092915050565b6000806000806080858703121561356357613562612d1b565b5b600061357187828801612f71565b945050602061358287828801612f71565b935050604061359387828801612ebc565b925050606085013567ffffffffffffffff8111156135b4576135b3612d20565b5b6135c08782880161351b565b91505092959194509250565b600080604083850312156135e3576135e2612d1b565b5b60006135f185828601612f71565b925050602061360285828601612f71565b9150509250929050565b7f4e487b7100000000000000000000000000000000000000000000000000000000600052602260045260246000fd5b6000600282049050600182168061365357607f821691505b602082108114156136675761366661360c565b5b50919050565b7f4552433732313a20617070726f76616c20746f2063757272656e74206f776e6560008201527f7200000000000000000000000000000000000000000000000000000000000000602082015250565b60006136c9602183612deb565b91506136d48261366d565b604082019050919050565b600060208201905081810360008301526136f8816136bc565b9050919050565b7f4552433732313a20617070726f76652063616c6c6572206973206e6f7420746f60008201527f6b656e206f776e6572206e6f7220617070726f76656420666f7220616c6c0000602082015250565b600061375b603e83612deb565b9150613766826136ff565b604082019050919050565b6000602082019050818103600083015261378a8161374e565b9050919050565b7f4552433732313a2063616c6c6572206973206e6f7420746f6b656e206f776e6560008201527f72206e6f7220617070726f766564000000000000000000000000000000000000602082015250565b60006137ed602e83612deb565b91506137f882613791565b604082019050919050565b6000602082019050818103600083015261381c816137e0565b9050919050565b7f4e487b7100000000000000000000000000000000000000000000000000000000600052601160045260246000fd5b600061385d82612e9b565b915061386883612e9b565b9250827fffffffffffffffffffffffffffffffffffffffffffffffffffffffffffffffff0382111561389d5761389c613823565b5b828201905092915050565b60006138b382612e9b565b91507fffffffffffffffffffffffffffffffffffffffffffffffffffffffffffffffff8214156138e6576138e5613823565b5b600182019050919050565b7f4e487b7100000000000000000000000000000000000000000000000000000000600052603260045260246000fd5b7f4552433732313a20696e76616c696420746f6b656e2049440000000000000000600082015250565b6000613956601883612deb565b915061396182613920565b602082019050919050565b6000602082019050818103600083015261398581613949565b9050919050565b7f4552433732313a2061646472657373207a65726f206973206e6f74206120766160008201527f6c6964206f776e65720000000000000000000000000000000000000000000000602082015250565b60006139e8602983612deb565b91506139f38261398c565b604082019050919050565b60006020820190508181036000830152613a17816139db565b9050919050565b6000613a2982612e9b565b9150613a3483612e9b565b925082821015613a4757613a46613823565b5b828203905092915050565b7f596f75206d7573742077616974206265666f7265206d696e74696e6720616e6f60008201527f74686572204e4654000000000000000000000000000000000000000000000000602082015250565b6000613aae602883612deb565b9150613ab982613a52565b604082019050919050565b60006020820190508181036000830152613add81613aa1565b9050919050565b7f796f7520646f206e6f74206f776e207468697320636172640000000000000000600082015250565b6000613b1a601883612deb565b9150613b2582613ae4565b602082019050919050565b60006020820190508181036000830152613b4981613b0d565b9050919050565b7f506c65617365207375626d6974207468652061736b696e67207072696365206960008201527f6e206f7264657220746f20636f6d706c65746520746865207075726368617365602082015250565b6000613bac604083612deb565b9150613bb782613b50565b604082019050919050565b60006020820190508181036000830152613bdb81613b9f565b9050919050565b7f596f752063616e742062757920796f7572206f776e2063617264000000000000600082015250565b6000613c18601a83612deb565b9150613c2382613be2565b602082019050919050565b60006020820190508181036000830152613c4781613c0b565b9050919050565b7f796f75206172656e7420746865206f776e657200000000000000000000000000600082015250565b6000613c84601383612deb565b9150613c8f82613c4e565b602082019050919050565b60006020820190508181036000830152613cb381613c77565b9050919050565b7f436172642069736e74206c697374656400000000000000000000000000000000600082015250565b6000613cf0601083612deb565b9150613cfb82613cba565b602082019050919050565b60006020820190508181036000830152613d1f81613ce3565b9050919050565b7f4f6e6c79206f776e65722063616e20757064617465206c697374696e6720707260008201527f6963650000000000000000000000000000000000000000000000000000000000602082015250565b6000613d82602383612deb565b9150613d8d82613d26565b604082019050919050565b60006020820190508181036000830152613db181613d75565b9050919050565b600081905092915050565b6000613dce82612de0565b613dd88185613db8565b9350613de8818560208601612dfc565b80840191505092915050565b6000613e008285613dc3565b9150613e0c8284613dc3565b91508190509392505050565b7f4552433732313a207472616e736665722066726f6d20696e636f72726563742060008201527f6f776e6572000000000000000000000000000000000000000000000000000000602082015250565b6000613e74602583612deb565b9150613e7f82613e18565b604082019050919050565b60006020820190508181036000830152613ea381613e67565b9050919050565b7f4552433732313a207472616e7366657220746f20746865207a65726f2061646460008201527f7265737300000000000000000000000000000000000000000000000000000000602082015250565b6000613f06602483612deb565b9150613f1182613eaa565b604082019050919050565b60006020820190508181036000830152613f3581613ef9565b9050919050565b7f45524337323155524953746f726167653a2055524920736574206f66206e6f6e60008201527f6578697374656e7420746f6b656e000000000000000000000000000000000000602082015250565b6000613f98602e83612deb565b9150613fa382613f3c565b604082019050919050565b60006020820190508181036000830152613fc781613f8b565b9050919050565b7f486f706566756c6c792073656e64696e672074686520636f727265637420707260008201527f6963650000000000000000000000000000000000000000000000000000000000602082015250565b600061402a602383612deb565b915061403582613fce565b604082019050919050565b600060208201905081810360008301526140598161401d565b9050919050565b7f4d616b652073757265207468652070726963652069736e2774206e656761746960008201527f7665000000000000000000000000000000000000000000000000000000000000602082015250565b60006140bc602283612deb565b91506140c782614060565b604082019050919050565b600060208201905081810360008301526140eb816140af565b9050919050565b60006080820190506141076000830187612f30565b6141146020830186612f30565b6141216040830185613191565b61412e6060830184612db6565b95945050505050565b7f4552433732313a20617070726f766520746f2063616c6c657200000000000000600082015250565b600061416d601983612deb565b915061417882614137565b602082019050919050565b6000602082019050818103600083015261419c81614160565b9050919050565b7f4552433732313a207472616e7366657220746f206e6f6e20455243373231526560008201527f63656976657220696d706c656d656e7465720000000000000000000000000000602082015250565b60006141ff603283612deb565b915061420a826141a3565b604082019050919050565b6000602082019050818103600083015261422e816141f2565b9050919050565b600081519050919050565b600082825260208201905092915050565b600061425c82614235565b6142668185614240565b9350614276818560208601612dfc565b61427f81612e2f565b840191505092915050565b600060808201905061429f6000830187612f30565b6142ac6020830186612f30565b6142b96040830185613191565b81810360608301526142cb8184614251565b905095945050505050565b6000815190506142e581612d51565b92915050565b60006020828403121561430157614300612d1b565b5b600061430f848285016142d6565b91505092915050565b7f4e487b7100000000000000000000000000000000000000000000000000000000600052601260045260246000fd5b600061435282612e9b565b915061435d83612e9b565b92508261436d5761436c614318565b5b828204905092915050565b600061438382612e9b565b915061438e83612e9b565b92508261439e5761439d614318565b5b828206905092915050565b7f4552433732313a206d696e7420746f20746865207a65726f2061646472657373600082015250565b60006143df602083612deb565b91506143ea826143a9565b602082019050919050565b6000602082019050818103600083015261440e816143d2565b9050919050565b7f4552433732313a20746f6b656e20616c7265616479206d696e74656400000000600082015250565b600061444b601c83612deb565b915061445682614415565b602082019050919050565b6000602082019050818103600083015261447a8161443e565b905091905056fea264697066735822122099347ee8b8d125bb876f49c3aa048b0a0f3e57ad5bb59ff40bb1ca1763376bd064736f6c63430008090033",
  "linkReferences": {},
  "deployedLinkReferences": {}
}